:020000040800F2
:100000000000022019030008210300082303000850
:10001000250300082703000829030008000000004A
:100020000000000000000000000000002B0300089A
:100030002D030008000000002F0300083103000812
:1000400033030008330300083303000833030008B8
:1000500033030008330300083303000833030008A8
:100060003303000833030008330300083303000898
:100070003303000833030008330300083303000888
:10008000330300083303000833030008AD2B0008D6
:10009000952B000833030008A12B00083303000848
:1000A0003303000833030008330300083303000858
:1000B0003303000833030008330300083303000848
:1000C0003303000833030008330300083303000838
:1000D0003303000833030008330300083303000828
:1000E0003303000833030008330300083303000818
:1000F0003303000833030008330300083303000808
:1001000033030008330300083303000833030008F7
:1001100033030008330300083303000833030008E7
:1001200033030008330300083303000833030008D7
:10013000330300080000000000000000D12B00087D
:10014000B92B000833030008C52B0008330300084F
:1001500033030008330300083303000833030008A7
:100160003303000833030008330300083303000897
:1001700033030008330300083303000800000000C5
:100180000000000033030008000000000000000031
:1001900033030008000000000000000033030008E3
:1001A0000000000000000000000000003303000811
:1001B0003303000833030008330300083303000847
:1001C0003303000800F002F800F098F80AA090E865
:1001D000000C82448344AAF10107DA4501D100F002
:1001E0008DF8AFF2090EBAE80F0013F0010F18BF37
:1001F000FB1A43F001031847F08E0000108F000037
:10020000103A24BF78C878C1FAD8520724BF30C842
:1002100030C144BF04680C60704700000023002414
:1002200000250026103A28BF78C1FBD8520728BF06
:1002300030C148BF0B6070476E2900F057857029A8
:1002400001F0C380662908F01382652908F0108246
:10025000672908F00D82612908F00C8203681B0AE7
:1002600028BF41F08001692900F00485642900F06D
:100270000185752900F0FE846F2901F050807829EE
:1002800001F08F80E92900F0EB87E42900F0E8878E
:10029000F52900F0E587EF2901F04D80F82901F0FC
:1002A0008E800368DB0928BF41F08001632901F0DB
:1002B000E386732901F0E886E32901F0F386F32948
:1002C00001F0F886002070471FB508F09EF99DE800
:1002D000030000F037FC01F04BFC0400002000217B
:1002E00008F084F8401C60600020002108F068F8E5
:1002F000E06001F099FB00F0E5FB1FBD05F0E8FCB4
:10030000114603B405F0F8FC03BCFFF7DDFF02F073
:1003100033FC05F021FF00000648804706480047EF
:10032000FEE7FEE7FEE7FEE7FEE7FEE7FEE7FEE7A5
:10033000FEE7FEE735420008C501000800487047A7
:10034000B80E002070B5064600F0E0FB056806F127
:100350000B0020F00704B4429CBF002070BD2B4668
:100360006A68BAB11068A04210D304F1080188424B
:100370003CBF5068586007D351681019416011683C
:10038000091B016058601460101D70BD134652684F
:10039000002AE7D12146284600F0C0FB0028DED124
:1003A00070BD70B50446051F00F0B0FB0068002C5E
:1003B00014BF446870BD002C18BFAC423CBF20463F
:1003C0006468F8D301680A18AA4218BF456003D1CF
:1003D0002A6805461144016028684119A1421CBFE2
:1003E0006C6070BD6168696021680844286070BDF8
:1003F00053EA020C00F069802DE9F04B4FF0000643
:10040000002B1FBFB3FA83F503FA05F424FA05F6AF
:100410005E4012BF1643B2FA82F502FA05F4C5F146
:1004200020051EBF22FA05FC44EA0C04203556EADA
:10043000044C4FEA144418BF641C4FF000084FF0FE
:100440000009904271EB030C39D3002919BFB1FAAE
:1004500081F701FA07F6B0FA80F700FA07F6C7F15C
:1004600020071EBF20FA07FC46EA0C062037B6FB21
:10047000F4FCA7EB0507103F07F01F0BCBF120069C
:100480000CFA0BFB2CFA06F644BFB3460026202FCD
:10049000A4BF5E464FF0000B5BEA060C08BF4FF0AE
:1004A000010B19EB0B09ABFB027C48EB0608C01BE8
:1004B00006FB02CC0BFB03CC71EB0C01C1E70B4636
:1004C000024641464846BDE8F08B13B54FF00000A8
:1004D0004FF00001AFF30080BDE81C407047B2F15F
:1004E00020030AD5C2F1200301FA02F120FA03F336
:1004F00000FA02F041EA0301704700FA03F14FF0FD
:10050000000070470B460146184600F039BE000057
:100510007CB51D4616460C00009001D02044401EBC
:10052000074B7B442A4669460190304600F007FE9F
:1005300005461CB10020694600F014FE28467CBD2B
:10054000490C00000B460146184600F019BE000099
:100550000FB4044910B503AA029800F011FE10BCB4
:100560005DF814FB100F00202DE9F05F894604466A
:100570004FF0000ADFF874B1FB44C0F820A0204619
:10058000E1688847002874D0252806D0D4E90121E5
:100590009047206A401C2062F1E700265F46204613
:1005A000E16888472028054607DB312D05D27819F8
:1005B00010F8200C08B10643F1E7B00701D526F08A
:1005C0000406C4F81CA00027C4F818A02A2D09D0DE
:1005D000284605F081FB38B304EB8708303DC8F8A6
:1005E000185019E059F8041B204604EB870291616A
:1005F000E1688847012F054618D1E069002820DA14
:1006000026F020061DE0D8F8180000EB800005EB6E
:1006100040003038C8F818002046E1688847054691
:1006200005F05AFB0028EED1012F0AD02E2D08D15B
:100630002046E16888477F1C0546022F46F02006C9
:10064000C4DBA069002803DA404246F00106A0613D
:10065000F00701D026F010066C2D0BD0682D09D0C4
:100660004C2D39D06A2D35D0742D35D07A2D33D01C
:1006700016E038E0E1682F4620468847B842054634
:1006800009D16C2F26D04FF48060E16806432046E4
:100690008847054604E06C2F1AD04FF4807006435B
:1006A0000DB3A5F14100192802D8203546F40066A3
:1006B0004A462946204626604E46FFF7BDFD80B1DA
:1006C00001280BD0F61D26F0070000F1080956E7B7
:1006D0004020E4E78020D8E70020D6E706F10409AF
:1006E0004DE7284652E7206ABDE8F09F2C850000C0
:1006F00070B50446C068810713D0800601D5A56A8D
:1007000004E0A169606808442169451A204601F0A7
:1007100047F9002206462946204601F06DF830468A
:1007200070BD002070BD70B510B1BDE87040DFE74E
:100730000025074C6E1E07E02046FFF7D9FF00B1E9
:100740003546206D20F00104002CF5D1284670BDFF
:10075000BC0E00202DE9F0410C4607461646104617
:1007600000F078F82078611C61280AD0722802D045
:1007700077283CD102E00125002405E0022504246D
:1007800002E0082448F2020511F8010B2B2806D0DC
:10079000622809D011F8010C74280AD00BE045F04A
:1007A000030544F00204EFE745F0040544F00104BA
:1007B000EAE744F010043846214605F0FDFA411CF2
:1007C00015D00021316171604FF40071F560F16165
:1007D0007061200704D530460222002101F00CF898
:1007E000306D40F0010030653046BDE8F0810020FA
:1007F000FBE72DE9F0410D460646104C206DC10780
:1008000004D0410804D020F00104F7E722460EE0AE
:100810005420FFF797FD07000ED0206D47F001012F
:10082000084354212065384600F0E4F83A4629464A
:100830003046BDE8F0418DE70020D6E7BC0E002031
:1008400011B14FF4807201E04FF480624FF40073F5
:1008500001F04EB82DE9F04704464FF000094FF083
:10086000FF37C568D4E90486A80707D0204601F001
:1008700097F8304605F050FA002802DA3846BDE80D
:10088000F087280502D54046FFF78BFD4C21204616
:1008900000F0B0F8206D20F0010020654846EEE73A
:1008A00030B503461D783DB10A4612F8014B1CB124
:1008B000AC42FAD15B1CF5E7181A30BD10B5431CE9
:1008C00002E010F8011B71B18107FAD14FF001323B
:1008D00002C88C1A8C4314EAC211F9D0C01A0A0655
:1008E00003D0C01E10BDC01A10BD0A0401D0801E66
:1008F00010BD0902FCD0401E10BD40EA010370B5D6
:100900009B072ED14FF00136042A2AD308C810C9FC
:100910009D1B9D43121F15EAC61517D0D8B2E1B230
:10092000401A50EA056110D198B2A1B2401A50EABB
:1009300005410AD123F07F4024F07F41401A50EA5C
:10094000052102D1180EA0EB146070BDA342DBD0CC
:1009500018BA21BA884201D9012070BD4FF0FF308A
:1009600070BD0AB9002070BD10F8013B11F8014BB1
:1009700063B1A3420AD1521E08D010F8013B11F80E
:10098000014B1BB1A34201D1521EEDD1181B70BD0A
:1009900010B5203AC0F00B80B1E81850203AA0E81A
:1009A0001850B1E81850A0E81850BFF4F5AF5FEA4E
:1009B000027C24BFB1E81850A0E8185044BF18C901
:1009C00018C0BDE810405FEA827C24BF51F8043BA8
:1009D00040F8043B08BF7047D20728BF31F8023BFC
:1009E00048BF11F8012B28BF20F8023B48BF00F890
:1009F000012B70474FF0000200B51346944696460F
:100A0000203922BFA0E80C50A0E80C50B1F1200121
:100A1000BFF4F7AF090728BFA0E80C5048BF0CC0CF
:100A20005DF804EB890028BF40F8042B08BF70472D
:100A300048BF20F8022B11F0804F18BF00F8012B9F
:100A4000704700004FF0013C50F8042B51F8043B74
:100A50009A4221D1A2EB0C03934313EACC1317D192
:100A600050F8042B51F8043B9A4215D1A2EB0C0329
:100A7000934313EACC130BD150F8042B51F8043BE9
:100A80009A4209D1A2EB0C03934313EACC13DBD0B7
:100A90004FF00000704700BFD01A01BAB1FA81F1DF
:100AA00001F0180122FA01F0CB40C1F12001DBB2C4
:100AB000C0B2C01A2CFA01F3D11A914311EAC31142
:100AC000E6D1704770B5064C7C44064D7D4403E08A
:100AD000206820448047241DAC42F9D170BD00003D
:100AE000688700006C8700002DE9F04117460E462C
:100AF000054633B107FB0354E41B2046B047A5422B
:100B0000FAD1A5F10800BDE8F08100000048704767
:100B1000B80F0020704770477047704738B50446DB
:100B20000A460020694601F0D0FB002808BF38BD06
:100B300002460099204601F01FF8012038BD01202F
:100B400001F098BBF8B501F0B5FB054600200C4656
:100B5000102000BF0646A819A0420DD932466946AA
:100B6000002001F0B2FB070008BF01F083FB0098F2
:100B7000A04218BF0546C419FFF7C8FF0560074625
:100B8000F01D20F007004619284600F00AF8B4428C
:100B900008BFF8BDA21B31463868BDE8F84000F038
:100BA000EBBF00210160C0E90110704710207047C1
:100BB00070B5044685690068C10601D5302600E09D
:100BC0002026C00707D070BDD4E9012130469047E8
:100BD000206A401C20626D1EF6D570BD70B50446BB
:100BE00085690078C00707D170BDD4E901212020B4
:100BF0009047206A401C20626D1EF6D570BD0968C2
:100C00004A0501D540B27047C905FCD500B270470E
:100C100009684A0501D5C0B27047C905FCD580B244
:100C2000704770B50C460546012A05D02878800625
:100C300000D5EA69002302E0012305E05B1C934232
:100C400002D2E05C0028F9D1A869E618C01AA861B0
:100C5000286A184428622846FFF7AAFF04E0D5E96D
:100C6000012114F8010B9047B442F8D32846FFF74E
:100C7000B5FF70BD2DE9F0410646002410687529C6
:100C8000314616A510D0FFF7BAFF002802DA40421D
:100C900013A507E031688A0701D512A502E04907CC
:100CA00004D511A5012401E0FFF7B2FF00210A22BB
:100CB00006F1240709E0B0FBF2FCB0FBF2F302FB03
:100CC0001C00303078541846491C0028F3D12346C4
:100CD0002A463046BDE8F04100F0ADBF00000000FC
:100CE0002D0000002B0000002000000011680268A9
:100CF000006A530501D508700AE0D30501D50880C4
:100D000006E0130603D5C217C1E9000200E008603F
:100D10000120704770472DE9FF4F0C461E464FF0EB
:100D2000FF378BB0D2E90001DDF860800A908A4677
:100D3000C1F30A5505B93D46002108464FF00000B1
:100D4000BAF1000F00F4400005DA00EB80004FF428
:100D5000400101EA50004FEA9059B9F1010F00DD5E
:100D6000B9460A9850EA4A000ED044F61050A5F24F
:100D7000FF3545432F14B8F1000F1ED07542291ED0
:100D80001EDDC9F100021CE0B8F1010F4FF00000B8
:100D900001D0302103E0F24305E02154401CB04271
:100DA000FBDB30460022002121540B99C1F808805A
:100DB000C1E900200FB0BDE8F08FBD1B6D1CDEE760
:100DC0004A4600DA694206A801F078F906AB93E8D2
:100DD000070003AB83E8070050460A9901F004FBC3
:100DE0008DE80700A0F500501F3800900398002DF3
:100DF0000ADD42F21F014A460844002303A903907A
:100E0000684601F06DFD09E0A0F500504A461F3824
:100E1000002303A90390684601F077FD8DE80700E1
:100E20000004000C03D04FF0FF30410800E01046F2
:100E3000B8F1000F03D00022009215461EE0751E87
:100E400005D400F0B3FE303262556D1EF9D5B346BD
:100E50000122084302D000227F1C04E020783028C1
:100E600001D100227F1E002A099784D01DE0112D98
:100E700007DA00F09BFE303262556D1C50EA010229
:100E8000F5D1084302D00098C8B10EE00021681ED9
:100E900005E0235C625C63542254401E491C81427D
:100EA000F7DBAB46A81B401E0990002004F80B009E
:100EB0000B98099AC0F80880C0E9002B7AE7112640
:100EC0004FF0000857E72DE9F04F88460446D21D41
:100ED00022F0070191B0D1E90001CDE90A0104F047
:100EE000CDFD02460B98C00F01D02D2007E02068F1
:100EF000810701D52B2002E0202101EAC000032A4E
:100F0000099001D0072A05DB03464146204601F03F
:100F100069F80BE12078800601D5E06900E0062041
:100F2000B8F1650F814606D0B8F1660F18D0B8F158
:100F3000670F70D131E00020B9F1110F009001DB93
:100F4000112301E009F101030AAA01A90CA8FFF786
:100F5000E2FEDDE90C70002609F10105834647E059
:100F600001204B4600904FF000470AAA01A90CA8A7
:100F7000FFF7D1FEDDE90DB00C995D46002610B9F2
:100F800009F101000D18B9EB050003D4C0F1FF36DB
:100F900009F10105A5EB09002BE0B9F1010F01DA18
:100FA0004FF001090020B9F1110F0090484601DD12
:100FB000112300E003460AAA01A90CA8FFF7ABFE23
:100FC000DDE90C704D4600268346207800070AD4E0
:100FD000AB4500DA5D4601A8012D04DD411911F889
:100FE000011C302907D04F4502DA17F1040F04DA4B
:100FF000012082460FE06D1EEEE7002F02DCED1BA4
:101000003E4403E0781CA84200DD7D1CB81B00F1C3
:10101000010A4FF000472078000703D4AA4501DBFE
:101020004FF0FF3A0021B7F1004F0DF143088DF862
:10103000431024D002202B23002F01DA7F422D23DE
:101040000A21021EA0F1010000DC5FB197FBF1FC58
:1010500097FBF1F201FB1C7C17460CF1300C08F8F1
:1010600001CDEEE7A8F1010003702188090501D543
:10107000452100E06521A0F1010800F8011C099854
:101080000FA9A1EB0807FF1D00B10120411901EBD9
:10109000EA70A1693844081A401EA0612078C00691
:1010A00002D42046FFF784FD099828B1D4E9012134
:1010B0009047206A401C20622078C00622D5204636
:1010C000FFF776FD1EE0002E04DBB34502DD01A82C
:1010D000805D00E03020D4E901219047206A401C67
:1010E0002062761CAAF101005FEA000A0AD100F032
:1010F0003FFDC0680168405CD4E901219047206A47
:10110000401C2062281EA5F10105DCDC07E0D4E9C3
:10111000012118F8010B9047206A401C2062381EFC
:10112000A7F10107F3DC2046FFF758FD032011B0BB
:1011300041E6000001694A1C02610878704700B569
:101140008FB0CDE901310021059105497944CDE900
:10115000031011466846FFF707FA0FB000BD000004
:10116000E5FFFFFF0A6802F8010B0A607047D1E94A
:1011700000239A4202D2531C0B601070704700008B
:10118000074B70B50D467B44FFF7D9FF0446284650
:1011900000F026F910B14FF0FF3070BD204670BD51
:1011A000075000002DE9FF5F15468A460446DFF828
:1011B000AC80F8440027D8E900103E46CDE9001085
:1011C00010E03AF816106A4602A801F027F8411C10
:1011D00007D02178890603D5E269391891420DD8E4
:1011E0000744761C2078800602D5E069B84205DD08
:1011F000AE42E6DB3AF816000028E2D1A069C01B37
:10120000A0612046FFF7D4FCD8E90010CDE900101A
:10121000002017E03AF818106A4602A800F0FEFF16
:10122000B0F1FF3F81460BD000250DF1080B05E022
:10123000D4E901211BF8050090476D1C4D45F7D3FB
:1012400008F10100B0428046E4DB206A38442062A5
:101250002046FFF7C3FCBDE8FF9F000006790000B1
:101260002DE9F0418046D21D22F007020025D2E987
:101270000002F52915A614D0011E72F1000106DA4C
:101280000023D0EB030063EB020211A608E0D8F8BC
:1012900000108B0701D50FA602E0490701D50EA665
:1012A00001251146002408F1240704E000F07EFC2B
:1012B00030323A55641C50EA0102F7D12B463246CF
:1012C00021464046BDE8F04100F0B5BC00000000FA
:1012D0002D0000002B0000002000000030B4002191
:1012E00000F1240408E002F00705D208303542EA94
:1012F0004372DB086554491C52EA0305F3D10468C4
:10130000002310A2250707D5A40600D421B1C46983
:1013100001230DA2641EC46130BC00F08CBC10B56A
:10132000044621461068FFF773FC02462046BDE8DC
:1013300010400023D2E7D21D22F00701D1E900239B
:10134000CCE700000000000030000000F0B40D46C3
:101350000188090502D5214C7C4402E01F4C7C44E5
:101360000E34002100F1240608E002F00F071209F4
:10137000E75D42EA03721B097754491C52EA0307EE
:10138000F3D102780023120704D5702D06D009B1DD
:10139000022311342246F0BC00F04DBC012310346E
:1013A000F8E770B504460D4621461068FFF730FC9B
:1013B000024629462046BDE870400023C6E7D21DFC
:1013C00022F00703D3E90023C0E70368126843F063
:1013D000200303600823C3610023B7E76877000098
:1013E000007B00F08000704770B50D460146144642
:1013F000D36850692A4604F02BFD002807DA411C07
:1014000007D0E16820F0004041F48041E160281AF3
:1014100070BD204600F090FA4FF0FF3070BDC168FB
:101420000022026021F4805141F0400111F4C06FAC
:10143000C16001D08260704702694168891AC2693F
:10144000891A816070472DE9F0470446C06840F46E
:101450008000E060010312D520F40020E0608106E6
:1014600006D4E26A61688A4200D80A46511A2160AD
:1014700040F40010E06094F82500BDE8F08720F407
:101480000010E060800602D5204600F0ACFAE0686B
:1014900042F281014FF0FF390140012903D020467B
:1014A00000F04AFAB6E02168002600290ADAC943AA
:1014B00040F480502160C4E902606068411C6160B2
:1014C0000078DAE744F2400108420CD020F4A04052
:1014D00040F040002660E06021696068401AE169E0
:1014E000401AA06096E0216991B9C00310D4E06968
:1014F000FEF728FF2061B0B1E06840F4006010F40E
:10150000407FE06002D140F48070E060206960605C
:10151000E068D4F814A0C1061AD5C0030ED5204641
:1015200000F03EFA14E004F1240020610120E061A3
:10153000E06820F4407040F48060E6E7216960686C
:10154000401AA1690144504604F0A9FC0028A6DB1A
:10155000E068C0032AD56168E06A884200D808467E
:101560002169451AE069471B1BD02046D4F8188032
:1015700000F016FA08EB05015046C4F8188004F094
:101580008EFC00288BDBE06840F40030E060000255
:1015900002D5A0692844A061E1692069C91B4518EA
:1015A0000DE0204600F0FCF9E769F5E72569616880
:1015B000D4E90607491BE56208446560A061E0685C
:1015C00020F0100010F4C06FE06002D0204600F060
:1015D00009FEE06840F48050C4E90260000205D5CD
:1015E0002069E06260606FF0010046E722463946FC
:1015F0002846FFF7F9FE411C0CD02918E16258B1CA
:10160000401E2060681C6060E06840F40030E060CC
:10161000287832E7484630E765602046FFF7FFFE4E
:10162000F8E72DE9F04705460C46C86820F420107D
:1016300040F48000C860800602D5084600F0D3F967
:10164000E06841F282014FF0FF390140022903D0E6
:10165000204600F071F9B5E000F42041B1F5004FEB
:101660000FD1C00306D56168E06A884200D80846F9
:10167000606006E02069E0626060606904F06CFB15
:10168000A061A0680022EEB200280DDAE1688B05A7
:101690000AD4C043A06041F490302260E0606068EA
:1016A000411C61600670A5E0E0689046226040F44D
:1016B0000050E060206968BB606904F065FB0127A9
:1016C00004F12405A0B1A08910F4407F08D0E0699E
:1016D000FEF738FE206118B1E06840F4006016E0C3
:1016E000E7612561E06820F4407040F480600EE01E
:1016F000E069FEF727FE00282061F1D0E06840F4A1
:10170000006010F4407FE06002D140F48070E0603F
:1017100020696060E06825696FF0010AC1051FD586
:101720006168E06A884200D80846411B04D022461E
:10173000284600F00BF9F0BBE068010203D5E56232
:10174000C4E9015854E0691CE1626160E16940F458
:101750008030491EC4E9021030462E70BDE8F08783
:10176000010202D500F480320AE06068411C616029
:101770000670E0680A2E40F48030E06006D0002257
:10178000E16A6068814203D90B4602E00122F7E773
:101790000346A7895B1B7F0503D4E7699F4200DDF1
:1017A000E2B1814200D80146E5620F1AC4E901584E
:1017B000002B09DD00E005E022461946284600F02E
:1017C000C5F808B14846C9E747B1A069E562656058
:1017D000C01BA061E06840F01000E060E06800021B
:1017E00008D56168A069E562491B08446560A0618D
:1017F0005046B3E73046B1E72DE9F04104461646BE
:101800000D464769007B80072ED0384604F0BCFAAD
:1018100050BB3EB3012E02D0022E25D104E020465B
:1018200000F0BEFC05441DE0384604F095FAE1687E
:10183000002841F01001E16005DA204600F07CF854
:101840000120BDE8F081C9030BD56268E16A9142CD
:1018500000D81146A26911442269891A814200DD2B
:1018600008460544002D01DA0220EAE7E16A6068D3
:10187000E268814206D29103E06203D522F400318E
:1018800041F01002A6690027AE4213DCE16A8142F2
:1018900001D90B4600E0034603EB060C2369ACEBD1
:1018A000030CAC4506DD814201D98C4600E084463C
:1018B0009C4505D1A760276042F02000A5620DE09D
:1018C000AD1BE669AE1B8142A66000D90846C01A6E
:1018D000281A20605819606022F02000034908404F
:1018E000E060002084F84870ABE70000BFCFD7FF6E
:1018F00070B5C468A50713D0650211D4B2F5807F16
:1019000009D0B2F5007F06D0B2F5806F08D101236F
:1019100000F1240106E05D1E6FF07F46B54201D361
:10192000012070BD0161C361416024F47061114305
:10193000C160002070BD0000C16821F4001141F0B9
:101940008001C16000218160016070472DE9F0478E
:10195000814614460E464FF0FF383248D568576925
:10196000054209D03846A16904F099FA002811DB34
:101970002C48C0430540E5602B4632464946384670
:1019800004F0A8FAA16920F00042B21A114400281C
:10199000A16103D02046FFF7CFFF4046BDE8F087A6
:1019A00070B504460569C06A6168884200D8084677
:1019B000E16821F42011E160C90312D5A84208D0E2
:1019C0002246411B2846FFF7C1FF10B14FF0FF3000
:1019D00070BD0020E562C4E90150E06820F4803069
:1019E000E060002070BD10B50446C06820F0200003
:1019F000E060A16AA06988420DD02046FFF7D0FFC1
:101A0000E06820F4405040F01000E060A06AA0615F
:101A10002069E062606044F24001E0688843E06071
:101A200010BD00001000020010B542485421FEF71E
:101A3000E1FF41485421FEF7DDFF40485421FEF705
:101A4000D9FF3F493B483C4A3F4B08603D490A604B
:101A50003A491960531C0365481C1065012008654C
:101A60003B48344A39A17844FEF774FE20B938481F
:101A700078440A3800F0F7FB37482F4A35A17844FC
:101A8000FEF768FE20B9344878440A3800F0EBFBD2
:101A900032482A4A2FA17844FEF75CFE20B92F482D
:101AA00078440A3800F0DFFB40232248DC000021A4
:101AB0002246FFF71DFF20B125487844543800F036
:101AC000D2FB1D48224640230021FFF711FF20B121
:101AD00021487844543800F0C6FB184822461023A9
:101AE0000021FFF705FF002806D01C487844BDE818
:101AF0001040563800F0B7BB10BD104870B5006DEF
:101B000020F001040B48FEF7A5FE0B48FEF7A2FEED
:101B10000A48FEF79FFE09E0206D20F001052046EF
:101B2000FEF798FE2046FEF73CFC2C46002CF3D135
:101B300070BD0000BC0E0020100F0020640F0020BC
:101B4000680200206C020020700200207200000079
:101B5000CE6C000077000000BD6C0000AD6C000092
:101B600010B500F08FFBBDE8104000F077BB00001F
:101B700000487047BC0F0020034640688C46002890
:101B800018BF88423CBF03464068F8D31868184421
:101B9000884207D00CF1030020F00700001D411A15
:101BA000521A0146081D0A60FEF7FBBB30B5B0F1C2
:101BB0000A024FEA900E71F100034EEA817EB0EB0B
:101BC0000E0061EB91014FEA101E4EEA017E10EB10
:101BD0000E0041EB11114FEA102E4EEA016E10EB90
:101BE0000E0041EB11214FEA104E4EEA014E10EB70
:101BF0000E0041EB1141401841F100014FEAD000C5
:101C000040EA41704FEAD10110EB80054FEA8104B0
:101C100044EA907444EB01046D1944EB0404521B34
:101C2000A3414FF0000348BF0A3200D530BD401C2D
:101C300041F1000130BD2DE9F0470D46994692462D
:101C4000044600F124080168880604D5E06921F003
:101C50001001216000E00120A84201DD471B00E0E7
:101C60000027A1697A1902EB0900081AA0612078FF
:101C7000C00602D42046FEF79BFF002608E0D4E908
:101C800001211AF806009047206A401C761C206249
:101C90004E45F4DB2078C0060AD52046FEF788FFC3
:101CA00006E0D4E9012130209047206A401C2062E0
:101CB000381EA7F10107F4DC07E0D4E9012118F888
:101CC00005009047206A401C2062281EA5F10105EE
:101CD000F3DC2046FEF782FF2078000602D50220C2
:101CE000BDE8F0870120FBE72DE9F04F04460D46E3
:101CF000D21D22F0070089B0D0E900974846394646
:101D000003F0BCFE0246F80F01D02D2307E0206847
:101D1000810701D52B2302E0202101EAC0038DF8C1
:101D200020300BB1012000E00020032A824601D0C0
:101D3000072A04DB2946204600F054F93FE12078C9
:101D4000800601D40D2500E0E569C7F30A560D2D84
:101D500049DA00214FEA175B08464FF00000002FD8
:101D600000F4400007DA00EB80004FF4400100EB84
:101D7000D07001EA60008115012901DD4FF0FF31CB
:101D800000224FEA850CBCF1180F06D31346ACF1C4
:101D900018004FF08052C24003E04FF4801323FA42
:101DA0000CF30CF10C0CBCF1200F04D3ACF1200CA3
:101DB00009FA0CF001E007FA0CF000294FF0004896
:101DC00001DD18B90FE00ED140450CD319EB020923
:101DD0005F4121B9404502D19F4329EA0209BBEB8B
:101DE000175F00D0761C2088000502D57B48784418
:101DF00002E07A487844193808AA302302F80A30F9
:101E0000037C0AF10101002E0AF1020A53546A46CA
:101E100002DC4FF0300101E04FF031014FF00108DA
:101E20008DF8001002D0A6F2FF3603E059EA470110
:101E300000D06B4E002D02DC2178090704D54FF04D
:101E400002082E218DF80110C44600210BE0C7F3D3
:101E500003433F01C35C491C6D1E02F8083005298D
:101E600008F1010801DA002DF1DC00210CE000EBA3
:101E70001973491C1B786D1E082902F808304FEAB7
:101E8000091908F1010801DA002DF0DC21688B0640
:101E900002D516E0A8F10108E04505DD02EB0803D4
:101EA00013F8013C302BF5D0B8F1000F09DD02EB3F
:101EB000080313F8013C2E2B03D1090701D4A8F124
:101EC0000108002D05DD3E2102F808106D1E08F105
:101ED0000108407C002E02F8080008F1010804DA2D
:101EE0002D20764202F8080002E02B2002F80800BC
:101EF0000A214FF47A70864208F101080BDB96FB49
:101F0000F0F3303302F8083096FBF0F308F10108E3
:101F100000FB136601E0642E0CDB642096FBF0F3FB
:101F2000303302F8083096FBF0F308F1010800FBAB
:101F3000136601E00A2E06DB96FBF1F0303002F862
:101F4000080008F1010896FBF1F001FB1060303049
:101F500002F80800A16908F1010808EB050202EB8C
:101F60000A00081AA0612078C00602D42046FEF7B5
:101F70001FFE216A08AE01EB0A00206204E0D4E9EA
:101F8000012116F8010B9047BAF1010AF7D2207827
:101F9000C00602D52046FEF70BFE6E4609E016F895
:101FA000010B3E280FD0D4E901219047206A401C44
:101FB0002062B8F10108F2D22046FEF70FFE09B008
:101FC0000320BDE8F08F206A2844206203E0D4E9B2
:101FD0000121302090476D1EEBD3F8E70D6D000016
:101FE00002FCFFFF2DE9F0411F460446032601686D
:101FF000072A01F4006004DB08B116A505E016A568
:1020000003E008B115A500E015A521F0100020603F
:10201000A069C01EA0610FB1401EA0612046FEF75E
:10202000C7FD4FB1D4E9012138469047206A401CD2
:102030002062C01C206206E0206AFAE7D4E9012190
:1020400015F8010B9047761EF8D22046FEF7C6FD24
:10205000BDE8F0814E414E006E616E00494E460073
:10206000696E660010B5436913B1AFF3008001E0FB
:10207000FEF7D7FD012010BD127800F124010A708F
:1020800000224A700122EDE711684FF0FF32E9E7C4
:1020900010B5436913B1AFF3008001E0FFF782F898
:1020A000012010BD128800F1240182840022C28424
:1020B0000122EDE711684FF0FF32E9E72DE9F04723
:1020C000814616468AB0354878440DC88DE80D0023
:1020D00032487844801C03AC0DC884E80D0041F6FA
:1020E0009B300844372190FBF1F290FBF1F5A5F10C
:1020F000800501FB12041B3C02D56442012000E074
:102100000020DFF898A080460027FA44AAF1BE0A12
:102110000EE0E0070AD03246684607EB470101238C
:102120000AEB810100F0F1FB8DE8070064107F1CD1
:10213000002CEED1194F7F44AE3F19E0E80715D0CF
:1021400007EB04100DF1180A90E80E008AE80E0063
:10215000C068F04201D1981908903246012306A9BF
:1021600003A800F0D2FB03AB83E807006D10641CEA
:10217000002DE3D14FF0010332466946B8F1000F5C
:1021800003A802D000F0ACFB01E000F0BEFBC9E9FF
:102190000001C9F808200AB0BDE8F087C46A000051
:1021A00010B50146C268900703D0900607D5886A2B
:1021B0000AE0FEF7C3F801210160881E10BD8B699B
:1021C000486818440B69C01A91F848301BB191F85F
:1021D0004910401A10BD1103FCD50028FADD401E3D
:1021E00010BD000070B5054640F202260A4C0FE013
:1021F00094F85000C00708D0AC4206D0E06836EA38
:10220000000002D12046FEF773FA206D20F0010491
:10221000002CEDD170BD0000BC0E002070B516463C
:102220000C46054600F074F8036893F80101012894
:1022300006D0FF2C0FD8185D68B101202C7070BD3E
:10224000D3F807013246214603F207130344284618
:10225000BDE8704018474FF0FF3070BD002801D036
:1022600000F050B8704710B500F074F8BDE81040A9
:10227000FFF7F4BF10B500F087F8BDE81040FFF796
:10228000EDBF000010B5002102A000F049F80120C8
:1022900010BD00005349475056464E3A20507572C3
:1022A00065207669727475616C20666E2063616C5E
:1022B0006C656400124B694600F580528A421A60D0
:1022C00001D8114670471960704730B50C4D6B4608
:1022D000A3F580532C6822449A420FD89B1A02F52A
:1022E000805003EBD37302EB6303984200D9184686
:1022F000C01D20F007020C60101B2A6030BD0000DA
:102300007402002001491820ABBEFEE7260002003F
:1023100010B5FFF72DFC001D10BD00BFD1600000FF
:1023200070B505460C460A2000E06D1C00F054F81C
:1023300035B128780028F8D102E0641C00F04CF890
:1023400014B120780028F8D1BDE870400A2000F0D0
:1023500043B8000010B5014602A0FFF7E1FF0120DD
:1023600010BD000053494752545245443A2052652B
:102370006469726563743A2063616E2774206F70BC
:10238000656E3A200000000010B5012805D000213C
:1023900003A0FFF7C5FF012010BD09A1F8E7000069
:1023A00053494752544D454D3A204F7574206F663E
:1023B0002068656170206D656D6F727900000000A6
:1023C0003A2048656170206D656D6F727920636F8A
:1023D000727275707465640008B569468DF8000006
:1023E0000320ABBE08BD70475FEA400C08BF91F008
:1023F000000F4FEA8C234FEAC12243EA51514FEAC2
:102400001C5018BF00F5F0404FEA300018BF41F0F3
:1024100000415FEA6C5C00F02980BCF1FF3F08BF1F
:1024200040F080407047130C06BF12044FF0100CB0
:102430004FF0000C130E04BF12020CF1080C130F26
:1024400004BF12010CF1040C930F04BF92000CF1B5
:10245000020CD30F04BF52000CF1010C11464FF0D7
:102460000002A0F11F00A0EB0C00704711F0004F1C
:1024700008BF704731F000413FF4D5AF0B0C06BFE9
:1024800009044FF0100C4FF0000C0B0E04BF0902B2
:102490000CF1080C0B0F04BF09010CF1040C8B0F9D
:1024A00004BF89000CF1020CCB0F04BF49000CF1F2
:1024B000010CCCF12003A0EB0C0022FA03F302FA8A
:1024C0000CF241EA030100F10100704720F07F4C5B
:1024D00080EA030023F07F47ACEB070303F57C534E
:1024E00000F0004003F1FF032DE980494FEA154B4E
:1024F00009B44FEA144325EA0B4E24EA03480FF2CD
:10250000042606EB132749083E785FEA320203FBF4
:102510000667C7F5000707FB06F64FEA54374FEA90
:10252000D64606F1020607FB066CCCF1005C4FEACA
:102530001C472CEA074C07FB06F40CFB06F504EBE2
:1025400015464FEA961634BF00204FF000404FEA80
:10255000D13706FB07FC4FEA1C4C0CFB0BF7D21BD8
:1025600003FB0CF761EB07010CFB0EF7B0EB074028
:1025700072EB17420CFB08F734BFA2EB0742B2EB39
:10258000074261EB17414FEA0C444FEA910706FB03
:1025900007FC4FEA1C4C0CFB0BF7B0EBC74072EB8F
:1025A000573203FB0CF734BFA2EBC742B2EBC74272
:1025B00061EB57310CFB0EF7B0EBC70072EB5772B3
:1025C0000CFB08F734BFA2EBC702B2EBC70261EB0A
:1025D0005771039F4FEA816141EA921104EBCC04E9
:1025E0004FEAD1374FEA826206FB07FC42EA9012BB
:1025F0004FEA80604FEA1C4C0CFB0BF7D21B03FB2D
:102600000CF761EB07010CFB0EF7B0EB074072EB28
:1026100017420CFB08F734BFA2EB0742B2EB0742AC
:1026200061EB17414FEA8C554FEA910704EB9C246C
:1026300006FB07FC4FEA1C4C0CFB0BF7B0EBC7404A
:1026400072EB573203FB0CF734BFA2EBC742B2EB7D
:10265000C74261EB57310CFB0EF7B0EBC70072EBD2
:1026600057720CFB08F734BFA2EBC702B2EBC702EC
:1026700061EB577115EB4C254FEA816141EA9211EC
:102680004FEA82624FEAD13742EA901206FB07FC1A
:1026900044F100044FEA80604FEA1C4C0CFB0BF73E
:1026A000D21B03FB0CF761EB07010CFB0EF7B0EB41
:1026B000074072EB17420CFB08F734BFA2EB07424E
:1026C000B2EB074261EB174115EB1C154FEA813164
:1026D00041EA92414FEA823242EA90424FEA803028
:1026E0004FEA0C7644F1000448EA03434EEA0B48F3
:1026F0004FF0000EB2EB080C71EB030724BF6246EB
:1027000039464EEB0E0E4FF0000B00185241494176
:102710004BEB0B0BB2EB080C71EB03077BF1000BDF
:1027200024BF624639464EEB0E0E4FF0000B0018E8
:10273000524149414BEB0B0BB2EB080C71EB030719
:102740007BF1000B24BF624639464EEB0E0E51EA78
:10275000020718BF46F0010616EB0E7655F100028F
:1027600054F1000103D5BDE88901BDE80088BDE84A
:102770008901BDE80048B619524141EB0101A3F1BE
:102780000103704780807F7E7D7C7B7A79787776C5
:1027900076757473727171706F6E6E6D6C6C6B6A3E
:1027A0006A696868676666656464636362616160DC
:1027B000605F5F5E5E5D5D5C5C5B5B5A5A59595859
:1027C00058575756565555555454535352525251C3
:1027D000515050504F4F4F4E4E4D4D4D4C4C4C4B19
:1027E0004B4B4A4A4A494949484848474747474660
:1027F000464645454544444444434343434242429C
:1028000042414141002B9C4630D477002BD01CB56F
:102810004FEA370703B44FF010004FF01001BAF140
:10282000000F06D0BCF1000FDCBF40F0080040F004
:1028300008014FF000000FBCBDE810400BF1010B88
:10284000BBF1010F08BF5FEA170722BF12F10102B7
:1028500011F101014FF0004143F1000300F000408D
:1028600043EA00007047F9D35708D0E746EA064626
:1028700013F1400F4FEA16461FDD13F1200FDFBFA3
:1028800016430A46002120335B42BED0C3F1200725
:1028900046EA064602FA07F74FEA164646EA0706F0
:1028A000C3F1200722FA03F201FA07F721FA03F134
:1028B0004FF0000342EA0702A7E746EA020646EAAB
:1028C00006464FEA164646EA0106BCBF46EA0646F9
:1028D000360C4FF000034FF000024FF0000194E778
:1028E0002DE9804C9A46934670B491E8380007C8A9
:1028F00031EA400C48BF34EA430C03D5FFF7E6FD4C
:10290000FFF780FFF0BCBDE8008C2DE9804C9A46B3
:10291000934670B491E8380007C810F0804F08BFA4
:1029200013F0804F03D100F005F8FFF76BFFF0BC08
:10293000BDE8008C20F07F4780EA030023F07F4C45
:1029400007EB0C03A3F57C5300F00040A3F1FE035A
:1029500092F0000F00F0B38095F0000F00F0778048
:102960002DE901494FEA11404FEA144621EA004897
:1029700000FB06FC24EA064708FB06F607FB08F8FE
:1029800000FB07F718EB06484CEB164C4FEA124BCE
:1029900018EB07484FEA15464CEB174022EA0B4E5E
:1029A0000BFB06FC25EA06470EFB06F607FB0EFEB0
:1029B0000BFB07F71EEB064E4CEB164C4FF00006D8
:1029C0001EEB074E4CEB174B18EB0B0840F10000C9
:1029D00018EB0E0B58EB000840F100008F1A4FF077
:1029E00000013CBFC943661B14BFB5EB040C0021BA
:1029F0003CBFC943F61B4FEA17444EEA8E0E27EA46
:102A000004454FEA1C4704FB07622CEA074C05FB10
:102A100007F70CFB05F604FB0CFC16EB074642EB34
:102A2000174216EB0C4642EB1C421BEB060658EB1A
:102A30000202414146EA9E0601D5BDE80189B61968
:102A4000524141EB0101A3F10103BDE801894FEAC5
:102A500014454FEA114724EA054621EA074C05FBD5
:102A600007F406FB07F70CFB06F105FB0CFC11EB6A
:102A7000074144EB17444FEA124711EB0C4144EB7A
:102A80001C4422EA074C05FB07F206FB07F70CFB88
:102A900006F605FB0CFC16EB074642EB174216EB5D
:102AA0000C4642EB1C456A1854F1000148BF7047C0
:102AB000B619524141EB0101A3F10103704795F0B2
:102AC000000F37D04FEA11424FEA144721EA02467D
:102AD00024EA074C02FB07F106FB07F70CFB06F4A0
:102AE00002FB0CFC14EB074441EB17414FEA15477E
:102AF00014EB0C4441EB1C4125EA074C02FB07F5A3
:102B000006FB07F70CFB06F602FB0CFC16EB074670
:102B100045EB174516EB0C4645EB1C42121951F1DB
:102B2000000148BF7047B619524141EB0101A3F1C2
:102B3000010370474FEA14454FEA114724EA05465E
:102B400021EA074C05FB07F106FB07F70CFB06F231
:102B50004FF0000605FB0CFC12EB074241EB17415E
:102B600012EB0C4251EB1C4148BF7047921841EBED
:102B70000101A3F10103704710B504F05FF9BDE84E
:102B8000104003F0F3BE0021016041608160C1602C
:102B9000704700000021014803F0D0B900640040F4
:102BA0000021014803F0CAB9006400400021014837
:102BB00003F0C4B9006400400121014803F0BEB92C
:102BC000006800400121014803F0B8B900680040E6
:102BD0000121014803F0B2B90068004090F83510B7
:102BE000022903D08021416501207047052180F82A
:102BF00035100068016821F0010101600020704774
:102C0000014880687047000038020020024881684F
:102C10000278114481607047380200200B4810B5DB
:102C2000016841F400710160016841F48061016054
:102C3000016841F480710160032000F071F80F20F9
:102C400000F006F800F06AF8002010BD003C0240D9
:102C500010B588B001A902A800F0B2FB00F0D0FBCB
:102C6000254A01900021136843F00803136012689D
:102C700002F008020792214A136843F00803136028
:102C8000136823F0080313601E4C1D4A22604A1E7D
:102C9000E260059B1C4A002B18BF4000B0FBF2F01D
:102CA000216180B2A160401E61616060154800F042
:102CB00019FE174815490068C0F8081115494FF466
:102CC0008020C1F8000100210E4800F027FE0421F9
:102CD0000C4800F023FE2068426A0F490A60096828
:102CE00001F57A7181632068C16841F00401C16017
:102CF00008B0002010BD00004038024020380240DB
:102D0000000C0040D007002040420F00F180000876
:102D100008ED00E004E000E0D4010020704700006E
:102D2000074900F007000A684FF6FF031A4042EA1D
:102D3000002040F0FD7040F08060086070470000A7
:102D40000CED00E0F8B51A48016841F080510160CF
:102D50000068184F00F08050012600903E64FFF795
:102D60004FFF154C0546606810F4803F0AD100BF44
:102D7000FFF746FF401BB0F57A7F11D8606810F46A
:102D8000803FF5D07E64FFF73BFF0546606810F496
:102D9000003F0BD1FFF734FF401BB0F57A7F01D91C
:102DA0000320F8BD606810F4003FF3D00020F8BDA8
:102DB0004038024000000E42007000402DE9F84FFC
:102DC0000446002700783E4610F0010FFE4D09D062
:102DD0002868A16B20F0C06008432860A06B002821
:102DE00008BF0127207810F0020F09D02868E16B96
:102DF00020F0C05008432860E06B002808BF01277E
:102E0000207810F0040F0ED02868216B20F44010B9
:102E100008432860206BB0F5801F08BF012702D04F
:102E2000002808BF0126207810F0080F0ED028686F
:102E3000616B20F4400008432860606BB0F5800FA0
:102E400008BF012702D0002808BF012620784FF0D4
:102E5000000B10F0200F6ED0DC48016841F080516B
:102E600001600068DFF8688300F080500090D8F8B7
:102E7000000040F48070C8F80000FFF7C1FE8146F2
:102E8000D8F8000010F4807F0CD100BFFFF7B8FE27
:102E9000A0EB0900022800F2DC81D8F8000010F451
:102EA000807FF3D0DFF82C93D9F8000010F4407045
:102EB0002CD0B4F8401001F44071814226D0D9F8EA
:102EC0000000C549012220F440700A60C1F800B03A
:102ED000C9F80000D9F8000010F0010F16D0FFF774
:102EE0008FFE8046D9F8000010F0020F08BF41F2B3
:102EF000883A0BD1FFF784FEA0EB0800504500F2A2
:102F0000A881D9F8000010F0020FF3D0206C4FF424
:102F1000407131EA0002B1491CBF086820F4F81082
:102F200056D00860D9F80000B4F84010C1F30B0186
:102F30000843C9F80000207810F0100F04D0A84909
:102F400094F85800C1F8E001207810F0800FA548EF
:102F500005D00168E26C21F4400111430160217841
:102F600011F0400F05D00168A26C21F0806111437F
:102F70000160218811F4807F0AD00168626D21F020
:102F8000006111430160616DB1F1006F08BF01265E
:102F9000218811F4007F05D00168626C21F0805116
:102FA000114301602188DFF840A2DFF84092DFF88A
:102FB000408211F4806F09D00168226D21F0005128
:102FC00011430160206DB0F1005F0ED06FB908E0D1
:102FD0000A6820F4407022F4F81220F07040104388
:102FE0009FE72068B0F5006F7DD1CAF868B0FFF7A1
:102FF00007FE0746D8F8000010F0006F0AD000BFA7
:10300000FFF7FEFDC01B02286ED8D8F8000010F0B4
:10301000006FF5D12168774811F0010F01D0A26B44
:1030200022B111F0020F17D0E16BA9B90168026853
:10303000C1F30141491CD4E9013C21F00041C2F334
:10304000036209EB014141EA026143EA8C13227DEC
:10305000194341EA02710160216811F0040F03D0A5
:10306000226BB2F5801F06D011F0080F21D0616BE2
:10307000B1F5800F1DD101680268C1F30141491CFF
:10308000D4E9013C43EA8C1321F0004194F810C0CC
:1030900009EB014141EA0C61C2F30272194341EAB2
:1030A000027101602968A26A21F01F01521E1143BA
:1030B0002960218811F4806F1DD0216DB1F1005F6E
:1030C00019D101680268C1F30141491CD4E9013CEE
:1030D00043EA8C13D4F80CC0C2F302724FEA5C0CC2
:1030E00009EB0C4C01E02FE0A7E04CEA41611943E9
:1030F00041EA02710160218811F4006F0FD0D4E918
:10310000011241EA8211E268237C520809EB024273
:1031100042EA03621143227D41EA0271016001200B
:10312000CAF86800FFF76CFD0746D8F8000010F0F9
:10313000006F09D1FFF764FDC01B02287DD8D8F8C5
:10314000000010F0006FF5D0E6B3CAF870B0FFF7DA
:1031500057FD0646D8F8000010F0005F0AD000BF07
:10316000FFF74EFD801B022873D8D8F8000010F03E
:10317000005FF5D12168204811F0040F01D0226BC7
:1031800022B111F0080F3AD0616BE1B90168D4E9BE
:103190000623C1F30141491C42EA831221F0004198
:1031A00094F8243009EB014141EA036111430160C5
:1031B0002968E26A6FF0FF0321F4F85103EB022261
:1031C00011431BE04DE01AE08C38024040380240C9
:1031D0000070004070380240400E474208380240FC
:1031E0000010474294380240000047420000FFFFB1
:1031F0000038024084380240883802402960218823
:1032000011F4807F12D0616DB1F1006F0ED10168B1
:10321000D4E9062342EA8312236AC1F303615B08FF
:1032200009EB034343EA0161114301600120CAF83D
:103230007000FFF7E5FC044600E00AE0D8F8000063
:1032400010F0005F0DD100BFFFF7DAFC001B022871
:1032500002D90320BDE8F88FD8F8000010F0005F15
:10326000F2D00020BDE8F88F002804BF012070478D
:103270002DE9F0474D4E04460F46306801F0FF0837
:1032800000F00F00B84206D286F80080306800F0E7
:103290000F00B84261D12068454D10F0020F14D0E4
:1032A00010F0040F03D0286840F4E0502860207824
:1032B00010F0080F03D0286840F4604028602868A8
:1032C000A16820F0F00008432860207810F0010F7A
:1032D00037D060683749012823D0022818BF032857
:1032E000096823D011F0020F37D0296821F00301BB
:1032F00008432860FFF784FC81462868616800F075
:103300000C00B0EB810F18BF41F2883A19D000BF12
:10331000FFF776FCA0EB090050450BD90320BDE870
:10332000F087096811F4003FDFD116E011F0007F4B
:10333000DBD112E02868616800F00C00B0EB810F6F
:10334000E6D1306800F00F00B84209D986F8008055
:10335000306800F00F00B84202D00120BDE8F087CD
:10336000207810F0040F05D02868E16820F4E050C0
:1033700008432860207810F0080F06D028682169DB
:1033800020F4604040EAC100286000F059F8296844
:10339000094AC1F30311515CC840084908600F2075
:1033A000FFF756FC0020BDE8F0870000003C02401B
:1033B00008380240003802403C8A000844020020DD
:1033C0000F2202600C4A136803F003034360136882
:1033D00003F0F0038360136803F4E053C3601268E2
:1033E0004FF4E05303EAD20202610448006800F09F
:1033F0000F0008607047000008380240003C02409F
:103400000448054900680968044AC1F38221515CF7
:10341000C840704744020020083802404C8A000827
:103420000448054900680968044AC1F34231515C07
:10343000C840704744020020083802404C8A000807
:10344000274810B5006810F00C02264808BF10BDD0
:103450002549042A04BF084610BD244C082A12D06E
:103460000C2A18BF10BD2268236802F03F0213F433
:10347000800F26D020680023C0F38810A0FB010134
:10348000FCF7B6FF25E02268236802F03F0213F440
:10349000800F08D020680023C0F38810A0FB010132
:1034A000FCF7A6FF07E021680023C1F38811A1FB08
:1034B0000001FCF79DFF2168C1F30141491C49004F
:1034C0000AE021680023C1F38811A1FB0001FCF789
:1034D0008FFF2168C1F30271B0FBF1F010BD000055
:1034E000083802400024F40000127A000438024038
:1034F0002DE9F84F04460078DFF8988310F0010FAB
:103500004FF00C06A8F1040562D008F10400016830
:1035100001F00C01042912D0016801F00C01082906
:1035200004D1D8F8001011F4800F08D1006836EAF1
:1035300000000DD1D8F8000010F4800F08D02868E2
:1035400010F4003F44D06068002800F0A0813FE004
:103550006068B0F5803F19D0B0F5A02F28680CBF87
:1035600040F4802020F48030286028680CBF40F4AC
:10357000803020F4802028606068B8B1FFF740FBFD
:103580000746286810F4003F05D021E0286840F481
:1035900080302860F0E7FFF733FBC01B642800F29F
:1035A0003081286810F4003FF5D011E0FFF728FBC8
:1035B0000746286810F4003F0AD000BFFFF720FB41
:1035C000C01B642800F21D81286810F4003FF5D16B
:1035D0002078B14F10F0020F4FD0B048016811F0C1
:1035E0000C0F1ED0016801F00C01082904BFD8F8A7
:1035F000001011F4800F14D0006836EA000004BFF8
:10360000D8F8000010F4800F0BD0E06818B3012048
:103610003860FFF7F5FA0646286810F0020F09D067
:1036200011E0286810F0020F1CBFE06801280AD0E2
:1036300000F02DB9FFF7E4FA801B02287ED8286835
:1036400010F0020FF6D02868216920F0F80040EA57
:10365000C100286011E000203860FFF7D1FA06466B
:10366000286810F0020F08D0FFF7CAFA801B022862
:1036700064D8286810F0020FF6D1207810F0080FF7
:103680002AD08748874E616999B101210160FFF70F
:10369000B7FA8146306810F0020F1DD1FFF7B0FA7B
:1036A000A0EB0900022849D8306810F0020FF5D0CD
:1036B00012E000210160FFF7A3FA8146306810F0A4
:1036C000020F09D0FFF79CFAA0EB0900022835D8B9
:1036D000306810F0020FF5D1207810F0040F77D089
:1036E00071484FF0000B006810F0805F0AD16E48FF
:1036F000016841F08051016000684FF0010B00F05B
:1037000080500090694E306810F4807F14D130688A
:1037100040F480703060FFF773FA8146306810F42F
:10372000807F09D1FFF76CFAA0EB0900022868D866
:10373000306810F4807FF5D05D4E00E061E0A06855
:1037400001281BD0052830680CBF40F0040020F091
:103750000100306030680CBF40F0010020F0040030
:10376000C6F80000A06841F2883AB8B1FFF748FAFD
:103770008146306810F0020F05D021E0306840F03B
:1037800001003060EEE7FFF73BFAA0EB090050457F
:1037900037D8306810F0020FF5D011E0FFF730FA9B
:1037A0008146306810F0020F0AD000BFFFF728FAF8
:1037B000A0EB0900504524D8306810F0020FF5D175
:1037C000BBF1000F04D03848016821F0805101603E
:1037D000A169E9B33148006800F00C00082856D010
:1037E0004FF00000022938660ED0FFF709FA0446B0
:1037F000286810F0007F47D0FFF702FA011B02296A
:103800003ED90320BDE8F88FFFF7FAF9064628688D
:1038100010F0007F09D000BFFFF7F2F9801B0228EB
:10382000EFD8286810F0007FF6D1D4E907010843EB
:10383000A16A204A490802EB0141626A41EA821109
:10384000084394F82C1040EA016194F8300000E03D
:103850001AE041EA0070C8F8000001203866FFF75E
:10386000CFF90446286810F0007F0DD1FFF7C8F9A2
:10387000001B0228C5D8286810F0007FF6D003E0AE
:10388000286810F0007FB7D10020BDE8F88F012034
:10389000BDE8F88F04380240000047420838024073
:1038A000800E4742743802404038024000700040A9
:1038B000703802400000FFFF0268042303FA01F1A0
:1038C000136A8B431362136A1943116201684A6CCD
:1038D00042F400424A640068016841F0010101605D
:1038E00000207047002804BF0120704710B504462F
:1038F00090F8390028B9002084F83800204600F0FC
:103900000CF8022084F83900211D206800F0BAFC70
:10391000012084F83900002010BD7047026801239F
:1039200003FA01F1136A8B431362136A194311629C
:103930000168A1F18042B2F580321CBFA1F1804242
:10394000B2F5823203D14A6C42F400424A64006804
:10395000016841F0010101600020704790F83830A3
:10396000012B04BF022070472DE9F001012480F8EB
:103970003840022380F83930834BDFF810C242B15F
:10398000042A44D0082A7DD00C2A00F0C08000F020
:10399000F1B80268156A25F001051562156A5668C6
:1039A0009769D1F8008027F0730748EA0707D1F834
:1039B000088025F0020548EA05059A4218BF6245CD
:1039C00011D1D1F80CC025F008034CEA030323F011
:1039D0000405D1F814C026F440734CEA0303D1F86F
:1039E00018C04CEA0306566097614B685363156232
:1039F0000268936943F0080393610268936923F0B6
:103A00000403936102689369096919433FE00268FE
:103A1000156A25F010051562156A56689769D1F880
:103A2000008027F4E64747EA0827D1F8088025F008
:103A3000200545EA08159A4218BF624511D1D1F810
:103A40000CC025F0800343EA0C1323F04005D1F8A5
:103A500014C026F4406343EA8C03D1F818C043EA4B
:103A60008C06566097614B68936315620268936990
:103A700043F4006393610268936923F48063936164
:103A8000026800E005E09369096943EA0121916158
:103A900070E00268156A25F480751562166A55682B
:103AA000D769D1F8008027F0730748EA0707D1F8F3
:103AB000088026F4007646EA08269A4218BF624536
:103AC00011D1D1F80CC026F4006343EA0C2323F48F
:103AD0008066D1F814C025F4405343EA0C13D1F8A2
:103AE00018C043EA0C155560D7614B68D363166262
:103AF0000268D36943F00803D3610268D36923F0F5
:103B00000403D3610268D3690969194331E002688B
:103B1000156A25F480551562176A5568D669D1F87B
:103B2000008026F4E64646EA0826D1F8088027F405
:103B3000005747EA08379A4218BF624505D1D1F8C5
:103B400014C025F4804343EA8C155560D6614B6858
:103B5000136417620268D36943F40063D361026897
:103B6000D36923F48063D3610268D369096943EAA6
:103B70000121D16180F83940002180F83810BDE87A
:103B8000F0010846704700000000014000040140B9
:103B9000002804BF0120704710B5044690F8390092
:103BA00028B9002084F83800204600F00CF80220E4
:103BB00084F83900211D206800F064FB012084F89E
:103BC0003900002010BD70470268012303FA01F19B
:103BD000136A8B431362136A194311620168A1F1DE
:103BE0008042B2F580321CBFA1F18042B2F5823230
:103BF00003D14A6C42F400424A640068016841F013
:103C00000101016000207047006881B0016811F077
:103C1000010F04BF016811F0020F03D0406800904B
:103C200001B07047016811F0040F04BF016811F082
:103C3000080FF3D101B0704770B5016804460868F9
:103C4000CA684B6910F00F0F4FF0200545D003F004
:103C5000010C02F490765CEA060C00F0F18010F0A2
:103C6000010F18BF12F4807F05D0D4F83CC04CF08F
:103C7000010CC4F83CC010F0040F18BF13F0010F82
:103C800005D0D4F83CC04CF0020CC4F83CC010F095
:103C9000020F18BF13F0010F05D0D4F83CC04CF050
:103CA000040CC4F83CC010F0080F18BF13F0010F4B
:103CB00003D0E36B43F00803E363E36B002B08BF1F
:103CC00070BD10F0200F18BF12F0200F72D094F8C2
:103CD0003A202046222A44D07CE010F0200F18BF62
:103CE00012F0200F67D094F83A202046222A18BFFD
:103CF00070BD8268B2F5805F1ED002695AB3496810
:103D000001F07F02816A4B1C83620A70C18D491EDB
:103D10000904090CC18518BF70BD0168CA6822F486
:103D20009072CA6001684A6922F001024A6180F813
:103D30003A5000F0FDF870BD0369826A4968002BB3
:103D400014BFC9B2C1F308011180816A14BF491CB4
:103D5000891C8162DAE74A68816A4B1C83620A70B7
:103D6000D4E78268B2F5805F0FD00269E2B149689A
:103D700001F07F02816A4B1C83620A70C18D491E6B
:103D80000904090CC18525D116E00369826A4968D6
:103D9000002B14BFC9B2C1F308011180816A14BF9E
:103DA000491C891C8162E9E74A68816A4B1C83626D
:103DB0000A70E3E70EE043E00168CA6822F49072FB
:103DC000CA6001684A6922F001024A6180F83A50EB
:103DD00000F0AEF820684169E26BC1F3801102F097
:103DE0000802114326D0C16821F49071C160206897
:103DF000416921F00101416184F83A50206841692C
:103E000011F0400F12D0416921F040014161606B17
:103E100060B12D490165606BFEF7E0FE002808BF28
:103E200070BD606B016DBDE8704008472046FFF72C
:103E3000EBFE70BD2046FFF7E7FE0020E06370BD9B
:103E400010F0800F18BF12F0800F2CD094F83900BA
:103E5000212818BF70BDA068B0F5805F206A16D019
:103E6000411C2162216800784860E08C401E0004FB
:103E7000000CE08418BF70BD2068C16821F080018B
:103E8000C1602068C16841F04001C16070BD008818
:103E9000C0F30800486020690028206A14BF401C55
:103EA000801C2062E1E710F0400F14BF12F0400FB9
:103EB00070BD2046CA6822F04002CA6084F83950BA
:103EC00000F037F870BD000045430008002804BF2B
:103ED0000120704770B5044690F83900002520B9DC
:103EE00084F83850204600F022F8242084F8390065
:103EF0002068C16821F40051C160204600F02AFA10
:103F00002068016921F4904101612068416921F034
:103F10002A0141612068C16841F40051C160E56334
:103F2000202084F8390084F83A00002070BD7047E2
:103F300070470068016811F0400F1CBF6FF040012E
:103F40000160704710B5012000F00AF8002818BF82
:103F500010BD00F05DF8002818BF10BDFEE700009E
:103F600070B52949AAB000260A6842F080520A605A
:103F7000096801F08051299124490A6842F44042BD
:103F80000A60096801F4404129910121009100284B
:103F90000CBF4FF480304FF4A02002240190600544
:103FA000CDE90640082508954FF4B470CDE9090421
:103FB0000720CDE90B046846FFF79AFA00BBFEF72D
:103FC000C1FEE8B94FF4C070CDE91350E0010D9087
:103FD000C004229015950DA8FEF7F0FE0F20CDE944
:103FE00024044FF4A050CDE92660E002289005217A
:103FF00024A8FFF739F9002802BF01202AB070BDBC
:1040000000202AB070BD000040380240007000401F
:1040100030B52648ABB00024016841F08051016002
:10402000006800F0805029902148016841F4404127
:1040300001600068022500F44040299003200090B0
:10404000012003900194102006950490CDE90740CB
:104050004FF4B470CDE9090506200B906846FFF7D0
:1040600047FA00BBFEF76EFEE8B90820C021CDE993
:104070001301159040010D90C00422900DA8FEF789
:104080009DFE0F20CDE924054FF4A050CDE9264038
:10409000E8022890052124A8FFF7E6F8002802BFCF
:1040A00001202BB030BD00202BB030BD4038024085
:1040B0000070004038B500242B4908284ED2DFE8B4
:1040C00000F0040D172029323B44284C086840F0CA
:1040D00001000860086800F0010007E0244C08684F
:1040E00040F002000860086800F00200009038E02C
:1040F000204C086840F004000860086800F00400E4
:10410000F4E71D4C086840F008000860086800F0FB
:104110000800EBE7194C086840F0100008600868D8
:1041200000F01000E2E7164C086840F0200008603C
:10413000086800F02000D9E7124C086840F0400001
:104140000860086800F04000D0E70F4C086840F0B5
:1041500080000860086800F08000C7E70BA001F04D
:10416000E7FF204638BD0000303802400000024022
:104170000004024000080240000C0240001002400F
:104180000014024000180240001C024050696E6D8D
:104190006170206572726F723A2077726F6E67205D
:1041A000706F7274206E756D6265722E0000000073
:1041B000DFF86CC030B4DCF800001A4B10F00C01D2
:1041C000194806D05C10042908BF046002D00829F1
:1041D0000CD00360DCF80010144AC1F30311515CE9
:1041E000026822FA01F1016030BC704710490A6888
:1041F000C2F380550A68002D02F03F0214BFB4FBE1
:10420000F2F2B3FBF2F20B680968C3F388135A4366
:10421000C1F30141491C4900B2FBF1F10160D9E74A
:10422000083802400024F400440200203C8A0008C0
:10423000043802400E48016841F4700101600D48E5
:10424000016841F0010101600B4A00211160026820
:1042500022F4102222F080720260031D074A1A60C5
:10426000026822F480220260054801607047000065
:1042700088ED00E000380240083802401030002489
:104280000C380240F0B40268294B2A4C2A4D2B4EC0
:10429000DFF8ACC0984218BFB0F1804F07D0A04201
:1042A00018BFA84203D0B04218BF604503D14F6881
:1042B00022F070023A43984218BFB0F1804F25D0E7
:1042C000A04218BFA84221D0B04218BF60451DD0FF
:1042D000A0F18044B4F5A0341CBFA0F18044B4F533
:1042E000A23413D0A0F18044B4F5A4341CBFA0F1D3
:1042F0008044B4F5C05409D0A0F18044B4F5E05432
:104300001CBFA0F18044B4F5005403D1CC6822F462
:104310004072224302608A68C2620A6882629842DE
:1043200012BF60450969016301214161F0BC70471A
:10433000000001400004004000080040000C004064
:104340000004014010B5806B0021C185C184FFF7D6
:104350005BFC10BD2DE9F041044600680169E2688C
:1043600021F44051114301612068C1682369A268AA
:10437000D4F81CC01A43636921F4037143EA0C03A7
:1043800021F414411A431143C16020684169A269B4
:1043900021F4407111434161E2693226B2F5004FC8
:1043A000BA48BB49BB4D22685DD08A4218BF8242E1
:1043B00040F01281FFF734F800EBC00101EB001070
:1043C00061688900B0FBF1F7FFF72AF800EBC00144
:1043D00001EB001061688900B0FBF1F0A5FB001053
:1043E00040096FF01801484307EB800006EB00100E
:1043F000A5FB0010400900F0F007FFF711F800EBF3
:10440000C00101EB001061688900B0FBF1F0A5FB71
:104410000010400907EB0017FFF702F800EBC0019E
:1044200001EB001061688900B0FBF1F8FEF7F8FFBE
:1044300000EBC00101EB001061688900B0FBF1F0F6
:10444000A5FB001040096FF01801484308EB8000FD
:1044500006EB0010A5FB00102168C0F343103844A0
:104460008860BDE8F0818A4218BF824259D1FEF7C8
:10447000D7FF00EBC00101EB001061684900B0FB01
:10448000F1F0A5FB001040090701FEF7C9FF00EBA2
:10449000C00101EB001061684900B0FBF1F8FEF7C4
:1044A000BFFF00EBC00101EB001061684900B0FBE9
:1044B000F1F0A5FB001040096FF01801484308EB2C
:1044C000800006EBC000A5FB0010400900F0F800DA
:1044D00007EB4007FEF7A4FF00EBC00101EB001063
:1044E00061684900B0FBF1F8FEF79AFF00EBC001EC
:1044F00001EB001061684900B0FBF1F0A5FB001072
:1045000040096FF01801484308EB800006EBC0003B
:10451000A5FB00102168C0F3421038448860BDE854
:10452000F081FEF76DFF00EBC00101EB0010616848
:104530004900B0FBF1F0A5FB001040090701FEF7B0
:104540005FFF00EBC00101EB001061684900B0FBA8
:10455000F1F8FEF755FF00EBC00101EB00106168B8
:104560004900B0FBF1F0A5FB001040096FF0180105
:10457000484308EB800006EBC000A5FB0010400993
:1045800000F0F80007EB4007FEF73AFF00EBC00130
:1045900001EB001061684900B0FBF1F8FEF730FF55
:1045A00000EBC00101EB001061684900B0FBF1F0C5
:1045B000A5FB001040096FF01801484308EB80008C
:1045C00006EBC000A5FB00102168C0F34210384480
:1045D0008860BDE8F08100BFFEF712FF00EBC0016C
:1045E00001EB001061688900B0FBF1F7FEF708FFEE
:1045F00000EBC00101EB001061688900B0FBF1F035
:10460000A5FB001040096FF01801484307EB80003C
:1046100006EB0010A5FB0010400900F0F007FEF7C4
:10462000EFFE00EBC00101EB001061688900B0FBF8
:10463000F1F0A5FB0010400907EB0017FEF7E0FEC4
:1046400000EBC00101EB001061688900B0FBF1F8DC
:10465000FEF7D6FE00EBC00101EB00106168890097
:10466000B0FBF1F0A5FB001040096FF018014843C2
:1046700008EB800006EB0010A5FB00102168C0F3DA
:10468000431038448860BDE8F08100000014014008
:10469000001001401F85EB5101490120087070474F
:1046A0004802002010B50F4C03E0207808B100F05C
:1046B00023F80D4801F07CF90028F6D10B4801F0F1
:1046C00077F90028F1D10A4801F072F90028ECD1FD
:1046D000084801F06DF90028E7D1BDE8104000F06E
:1046E0003FB9000048020020800A0020A80B0020EB
:1046F000580900203008002010B5094801F058F989
:1047000038B9084801F054F918B9074801F050F9D0
:1047100008B100F025F905490020087010BD00001F
:10472000800A0020A80B0020580900204802002021
:1047300010B5522820D04C2820D0442822D055280B
:1047400027D058282ED043282ED000214E2832D0F2
:10475000412832D0502835D0532832D11A4801F0A0
:1047600019F81A4801F016F8194801F013F8BDE8D5
:104770001040184801F00EB8012200E0002232215A
:10478000114814E001222821104800F0A7FF01225F
:1047900005E0002228210D4800F0A0FF002228217A
:1047A0000B4804E0002200E001220A481E21BDE877
:1047B000104000F093BF044802E004480160044840
:1047C000016010BD0348FBE7800A00205809002063
:1047D00030080020A80B002070B5264C2068002867
:1047E00004BF201D2060251DA84204D05D2222495F
:1047F000224802F07BFA224822680324C16800297B
:1048000018BF042422D000BF50F8241031B100EBAF
:1048100084014968C1B1A41C102CF5DB102C15DBF8
:10482000FBF78CFD1821016012480168002904BFC4
:10483000011D0160A94204D05D220F490F4802F01A
:1048400055FA4FF0FF3070BD641CE7E74FF0FF31C1
:1048500040F824100748002A04BF011D01600068C9
:10486000A84204D05D220449044802F03FFA2046E1
:1048700070BD0000E8010020AC8D0008988D000894
:10488000F00100201028A4BF002070472DE9F0415E
:104890001F4E044656F82400B0F1FF3F18BFBDE894
:1048A000F081032CA8BFBDE8F081204600F0ECFBAE
:1048B00048BB204600F0EDFB28BB1648007810F0FE
:1048C000010F1FD1134801F005F9D8B1124D13485B
:1048D00002212860124803224FF41657006800286E
:1048E00018BF284607D10F4803F00CF839460D4889
:1048F00002F0D2FF28460C4A0C4901F0D7F80548CF
:1049000001F016F9044846F82400BDE8F0810000E3
:10491000F0010020D8010020DC010020B08B00084D
:1049200030020020EC05002000000008394A000891
:1049300070B505460024094E08E0304600F0F8FB4B
:10494000C1B229550A2908D0641CE4B20348BC3816
:1049500000F0BFFB0028F9D0EFE770BDA80D0020E4
:1049600010B50D4800F07AFF02460E480BA1044630
:1049700000F036FC0C4800F071FF02460BA1204607
:1049800000F02EFC0B4800F069FF02462046BDE80F
:10499000104009A100F024BC800A00207825690A93
:1049A00000000000A80D0020580900207925690AA0
:1049B00000000000A80B00207A25690A0000000012
:1049C00010B5012809D040F69801054800F063FBB6
:1049D000BDE810400A2003F0E1BC40F2B631F4E734
:1049E000400E002010B50C46002A04BF002010BD68
:1049F000024802F075FF2070012010BDEC05002078
:104A00006FF01C0070476FF0040070470020704783
:104A100070B515000E464FF0000406D0315D044815
:104A200003F032FA641CA542F8D8284670BD000095
:104A3000EC05002001207047704770B50C46054614
:104A40001C21FBF7D7FF2146284601F04BFC2846E6
:104A500070BD026811B181680A6070471104C268B4
:104A600011607047416809680068014201D0012067
:104A700070470020704770B504460068012200218D
:104A8000036920469847050048BF70BD2068022290
:104A900000210369204698470646206800222946DF
:104AA000036920469847304670BD002070474C305F
:104AB00002F016BF10B50C464C3003F0E5F9204665
:104AC00010BD00EB0110D0F8A410002908BF7047FA
:104AD00009689830084770B504464C3003F08EF8EA
:104AE000054600F47C51A06C0026002818BF002960
:104AF00005D004F13C020368012610469847A26BDA
:104B000005F0FC01002A18BF002904D0126804F146
:104B10002C00904702E0002E08BF70BDBDE8704039
:104B200003F016BA70B5044600680D4601682046C9
:104B30008847294604F14C0002F0AEFEC4F8B85094
:104B4000206841682046BDE87040084770477047BC
:104B500070B50446006801682046884704F14C009F
:104B600003F0A6F905462068416820468847284694
:104B700070BD00002DE9F047904604463E4A84B0DF
:104B80003C481E4689462060D2E902130022A160FB
:104B9000E3603A49216148F207016161E261A46181
:104BA00004F10801216236496162BFF36F8FBFF3E0
:104BB0004F8F924684F828A084F829A0C4F82CA02E
:104BC000C4F830A0C4F834A0C4F838A0C4F83CA09D
:104BD000C4F840A0C4F844A04C2104F14C00C4F82F
:104BE00048A0FBF707FF02231022264904F1980092
:104BF00000F05EFFA0F198050027066205EB0710A4
:104C000000F198046E46CDF800A0CDF804A0CDF8D0
:104C100008A0CDF80CA0B4420DD0E16820460029D0
:104C20001CBF896888473146039810B14268204606
:104C300090470398E0600399684600291CBF896883
:104C400088477F1C022FD9D34246494605F14C00C4
:104C500002F058FE05F14C00D5F8B81002F01CFE29
:104C60002A46094905F14C0002F0BCFF04B0284671
:104C7000BDE8F087488C0008748A000801A090E81D
:104C8000E5840008872B0008C34A00082DE9F0439B
:104C9000054689B045480027B9462860CDF81090F0
:104CA000CDF81490CDF81890CDF81C90286804AE7B
:104CB00007F0FF0801682846884701F0EDF90798DA
:104CC00005EB08140028D4F8A4001BD0002808BF66
:104CD00003F00EF99834B4420DD0E1682046002963
:104CE0001CBF89688847079818B14268314620463A
:104CF00090470798E0600122414605F14C0003F01F
:104D00002BF829E0002818BF03F022F96E469834EA
:104D1000CDF80090CDF80490CDF80890CDF80C9027
:104D2000B4420DD0E168204600291CBF896888473D
:104D30003146039810B14268204690470398E060DE
:104D40000399684600291CBF8968884700224146AC
:104D500005F14C0003F000F801F0CEF92868416835
:104D600028468847079804AA10B1816810468847EA
:104D70007F1C022F92DB022310220D4905F19800BF
:104D8000FBF7B2FEA86C05F13C0410B18168204627
:104D9000884754F8040C103C10B1816820468847BD
:104DA00009B0A4F12C00BDE8F0830000488C000895
:104DB000AF84000808B500F108010090D0F818C0D1
:104DC000604603F0EFF808BD01688968084782690A
:104DD00000F10801104603F061B9000010B5044667
:104DE000074820600020A060E0602061606101F061
:104DF00007FA0449A06103F06DF9204610BD0000D8
:104E0000608C0008C94D000810B5044604482060B5
:104E100004F10801A06903F041F9204610BD00002B
:104E2000608C000810B5044601F036F904F120004A
:104E300001F08CFABDE8104001F05EB9002908BF0E
:104E40007047012909D0022918BF7047C16C002999
:104E500008BF7047096840300847C16B002908BF88
:104E6000704709683030084770B584B00D46064673
:104E700001F012F9E86806F14004B8B1AC420ED076
:104E8000E168204600291CBF896888473CB1E86872
:104E900018B14268294620469047E868E060012240
:104EA000022106F1200001F0FBFB22E000206D460C
:104EB0000090019002900390AC420ED0E168204631
:104EC00000291CBF896888473CB12946039810B166
:104ED0004268204690470398E0600399684600299D
:104EE0001CBF896888470022022106F1200001F0DA
:104EF000D7FB04B0BDE8704001F0FEB870B584B0D7
:104F00000D46064601F0C8F8E86806F13004B8B16D
:104F1000AC420ED0E168204600291CBF8968884752
:104F20003CB1E86818B14268294620469047E868D5
:104F3000E0600122114606F1200001F0B1FB22E001
:104F400000206D460090019002900390AC420ED07C
:104F5000E168204600291CBF896888473CB1294682
:104F6000039810B14268204690470398E060039987
:104F7000684600291CBF896888470022012106F184
:104F8000200001F08DFB04B0BDE8704001F0B4B822
:104F900070B504461148206000206060A060E060A9
:104FA00020616061A061E06120626062A062E062F5
:104FB00020636063A063E06320646064A064E064D5
:104FC0000D462346064A04F1200001F079FA2946ED
:104FD000201D01F073F9204670BD0000748C00089C
:104FE0003D4E000810B504460A48206004F1200038
:104FF00001F004FAE06C403410B181682046884723
:1050000054F8040C103C10B1816820468847A4F184
:10501000300010BD748C000870B5174C0546206830
:10502000002804BF201D2060261DB04204D05D2250
:105030001249134801F05AFE00212468114B102236
:10504000084600BF53F821C0AC4508BF43F8210013
:10505000491C521EF6D10848002C04BF011D0160F6
:105060000068B04208BF70BD5D22BDE870400349D2
:10507000034801F03BBE0000E8010020AC8D0008B1
:10508000988D0008F0010020002070470021FBF7F8
:10509000D7BB0020704770B50C46054600F0FCFFFA
:1050A0002146284602F010FBBDE8704001F024B80C
:1050B00010B5044600F0F0FF207E012803D102F075
:1050C00047FF0020207601F017F8204610BD7047FA
:1050D000704710B5FFF73CFD002800D0012010BD3F
:1050E00010B51C46029BFFF745FD2146BC3000F081
:1050F00091F8054940F8BC1D7C31C0F8C0105C39FE
:10510000C0F8BC1010BD0000848C000810B5074921
:1051100040F8C01B7C3140F804195C39016000F094
:10512000B1F8BDE81040BC38FFF7B0BD848C000872
:1051300070B504460068C16C204688476069FBF77B
:10514000F2FA606900F0BCFA05462068016D20465D
:105150008847284670BD70472DE9F0410546006834
:105160000F460C468E18C16C28468847B4420AD0B8
:105170002868826C28469047B0F1FF3F03D004F8BE
:10518000010BB442F4D12868016D28468847E01B22
:10519000BDE8F08100207047002070470020704774
:1051A0002DE9F041054600680F460C468E18C16C8B
:1051B00028468847B4420AD0286814F8011B426C7C
:1051C00028469047B0F1FF3F18BFB442F4D1286899
:1051D000016D28468847E01BBDE8F081002070473C
:1051E0000FB470B504460068C16C2046884706AD10
:1051F0006069FBF798FA2A4660690599FBF7A2F9FE
:1052000005462068016D20468847284670BC5DF839
:1052100014FB704710B5104A40F8042B002200F030
:10522000A5F9041F0D4820605C30606000206061BB
:105230000BA1204600F012F901000846616102D07E
:10524000FFF724FF05E0FBF779F8016805A000F0FF
:105250006FFF204610BD0000FC8B0008108D000879
:10526000772B000053747265616D206F626A20664F
:1052700061696C7572652C206572726E6F3D256474
:105280000D0A000010B50446054820605C306060DF
:105290006069FBF7DFFA201D00F088F9001F10BDE0
:1052A000108D000870B515461E46044600F0F4FE49
:1052B0002046FFF78CFDC4E90856A06902F0DFFE26
:1052C000D4E9082382184B412046FFF773FDBDE85F
:1052D000704000F011BF30B585B0044600F0DCFE30
:1052E0002046FFF774FD606B00281EBF94F838005D
:1052F000002802F02DFE6D46002028340090019019
:1053000002900390AC420ED0E168204600291CBFF9
:10531000896888473CB12946039810B14268204605
:1053200090470398E0600399684600291CBF89688C
:10533000884700F0E1FE05B030BD10B50446D4E961
:105340000801D4E9022312184B412046FFF732FD31
:10535000616B002908BF10BD04F128000968BDE891
:10536000104008472DE9F041174698460D4606467D
:1053700000F092FE706B20B996F8380008B102F088
:10538000B7FD06F12804AC420AD0204603F08FF89E
:10539000E86818B14268294620469047E868E0600E
:1053A0003A4643463046FFF77DFFBDE8F04100F046
:1053B000A3BE000010B5FFF711FD00228262C26299
:1053C0000263034942630160012180F8381010BD77
:1053D0007C8D000870B5054684B01F48286000F039
:1053E0005BFE2846FFF7F3FC686B00281EBF95F8AC
:1053F0003800002802F0ACFD05F1280400206E46BC
:105400000090019002900390B4420ED0E1682046D3
:1054100000291CBF896888473CB13146039810B108
:105420004268204690470398E06003996846002947
:105430001CBF8968884700F05FFE686B05F128048F
:1054400010B181682046884704B0A4F12800BDE867
:105450007040FFF7D9BC00007C8D00082DE9F043B7
:1054600083B00E460546FFF7B7F90027DFF88480C2
:10547000002806DB204948F820500F5401F11001A4
:105480000F54044602BF002003B0BDE8F08331464C
:105490004FF040008DF80000CDF801406846FBF762
:1054A000A8F906004FF009091BD02046FFF7EAF9DA
:1054B00048B10168C9698847041E09DAFAF73EFF56
:1054C0006142016009E0FAF739FFC0F8009004E09A
:1054D00003D030460021FBF7B3F903B03046BDE8F6
:1054E000F08358F82400A84208BF48F82470EAD195
:1054F000F3E70000F00100208D050020007B7047DD
:1055000070B506460D46154802F086FF144804683B
:10551000F4B1A068C8B12A463146FBF7EEF9A0B94C
:10552000A068FBF7CBF9A8420FD10C48016800290D
:1055300004BF011D0160001D814204D05D220949A4
:10554000094801F0D3FB204670BD6468002CE0D10F
:10555000024802F061FF002070BD000060020020E0
:105560005C020020AC8D0008988D000870B50446E0
:105570000B480026A160C4E900060D4622730948C5
:1055800002F04AFF002D08BF666003D0064801689C
:1055900061600460034802F03FFF204670BD0000D8
:1055A000908D0008600200205C02002010B50446C7
:1055B00010482060104802F02FFFA06878B10F4912
:1055C0000868A04204BF6068086008D04168A14232
:1055D00003D008464968A142FBD161684160064892
:1055E00002F01AFF207B002804BF201FFFF714FDE4
:1055F000204610BD908D0008600200205C02002053
:1056000010B50446406818B1FFF778FF012801D0B3
:10561000002010BD6068002818BF001F10BD10B525
:105620000446406810B1FFF769FF08B1002010BDC3
:105630006068002818BF001F10BD4068002818BF10
:105640000120704710B54068002808BF10BDFFF763
:1056500055FF00280CBF0120002010BD00687047D6
:1056600070B5044600200D46206060600FA12846FA
:10567000FBF716F9461900252660216808782F28BF
:1056800004D028B1481C6D1C2060F6E7481C20603F
:1056900025B92822064907A001F028FB29463046F3
:1056A000FFF72EFF6060204670BD00002F00000055
:1056B0008C8F00086C656E20213D203000000000BA
:1056C00000F05ABD10B5044600F064F820460022F0
:1056D000BDE81040052100F001B800007FB50D467F
:1056E000044611462030FFF7B4F94FF0FF30E06375
:1056F00094ED140A9FED0F1A0F482146C1EE000ADF
:1057000000EE105AD0E90423B8EEC00A684680EED5
:10571000801ABDEEC10A10EE105A02F0D1FE2A46E0
:10572000EB17694604F15800FFF71CFE684602F0CB
:10573000BEFE7FBD00247449548A000810B504469B
:10574000C06BB0B1201DFFF78DF9D8B10021201D2D
:10575000FFF77FF9E06B002802DDE06B401EE0639D
:1057600004F12000FFF77EF900280DDD4FF0FF3037
:105770000BE00021201DFFF76CF92046BDE810402A
:1057800000F008B80121E2E7012021680844206008
:1057900010BD000010B59FED070A044680ED100A09
:1057A0005830FFF798FD04F19800FFF794FD0020B2
:1057B000E06310BD0000000070B52DED028B84B0D9
:1057C00090ED130AD0ED100A044630EE200A80ED69
:1057D000130A90ED130AD0ED120AB4EEE00AF1EECE
:1057E00010FA07DB04F19800FFF775FD04B0BDEC7B
:1057F000028B70BDD4ED140A9FED151A81EE200ABC
:10580000D4ED130A80EE208A18EE100A02F002FF8F
:10581000054610480E462146D0E90423684602F0AA
:105820004FFE2A463346694604F15800FFF79AFDB9
:10583000684602F03CFE18EE100A02F075FE41ECDC
:10584000100B05A053EC102BFAF782FECEE70000F8
:1058500000247449548A000825660A000168D0EDC6
:10586000140A00EE101AB8EEC00A80EE201ABDEE3F
:10587000C10A10EE100A70472DE9FF410D4604469B
:105880001E4611462030FFF7E4F800EE905A94EDE2
:10589000140AF8EEE00A60EE200AFDEEE00A10EECF
:1058A000900AE063D4ED100A1F4DF5EEC00AF1EE48
:1058B00010FA1BD19FED1D1AC1EE000A00EE106A0E
:1058C000B8EEC01A80EE810A10EE100A02F0A2FEB5
:1058D000D5E9042306460F462146684602F0F0FD4E
:1058E00032463B46694604F1580015E000EE106A66
:1058F00021466846B8EEC00A84ED120A9FED0C0AF4
:1059000084ED130AD5E9062302F0DAFD42F21072A3
:105910000023694604F19800FFF724FD684602F071
:10592000C6FDBDE8FF810000548A000800247449C8
:1059300000000000436C194400EE101A0368F8EEF2
:10594000C00A90ED140A60EE800AFDEEE00A10EE47
:10595000901A8B4203680DDAC91A00EE901A1346AA
:105960000022F8EEE00A80EE801ABDEEC10A10EEC9
:10597000101A0FE08B420FDD0368591A00EE901ADF
:1059800013460122F8EEE00A80EE801ABDEEC10A4D
:1059900010EE101AFFF770BF704710B50446FFF7FE
:1059A000F9FE0021216010BD0A461E21FFF796BEB8
:1059B000C06B002800D00120704780ED100A7047AE
:1059C00070B50D462DED028B84B01C469DED0A8A04
:1059D0001146001DFFF731F829461C30FFF72DF85E
:1059E0003830FFF7E7FC4030FFF7E4FC2146403059
:1059F000FFF7CEFAB8EEC80AA0F1D80400ED220AEB
:105A000000202060E063124D21466846D5E900235E
:105A100002F056FD04F1D80069460646FFF724FA65
:105A2000684602F044FDD5E902232146684602F0AB
:105A300047FD69463046FFF761FA684602F037FDD8
:105A40003046FFF7EFF904B02046BDEC028B70BD85
:105A5000548A000810B5D830FFF7C4FA4038FFF771
:105A6000B9FC4038FFF7B6FC583810BD7047BC3859
:105A7000FFF71DB8BC38FFF71DB8704703B4019895
:105A80004100009850EAC12018BF04204A0D18BFF9
:105A900040F0010040F2FF72B2EB515F08BF40F0EE
:105AA0000200012808BF052002B07047012070479E
:105AB0002DE9F0411C4617460E00804607D00546EA
:105AC00002E02846B0473D442046641EF9D24046D5
:105AD000BDE8F08110B50446007800F0030101290B
