:020000040800F2
:100000000000022019030008210300082303000850
:10001000250300082703000829030008000000004A
:100020000000000000000000000000002B0300089A
:100030002D030008000000002F0300083103000812
:1000400033030008330300083303000833030008B8
:1000500033030008330300083303000833030008A8
:100060003303000833030008330300083303000898
:100070003303000833030008330300083303000888
:10008000330300083303000833030008692B00081A
:10009000512B0008330300085D2B000833030008D0
:1000A0003303000833030008330300083303000858
:1000B0003303000833030008330300083303000848
:1000C0003303000833030008330300083303000838
:1000D0003303000833030008330300083303000828
:1000E0003303000833030008330300083303000818
:1000F0003303000833030008330300083303000808
:1001000033030008330300083303000833030008F7
:1001100033030008330300083303000833030008E7
:1001200033030008330300083303000833030008D7
:100130003303000800000000000000008D2B0008C1
:10014000752B000833030008812B000833030008D7
:1001500033030008330300083303000833030008A7
:100160003303000833030008330300083303000897
:1001700033030008330300083303000800000000C5
:100180000000000033030008000000000000000031
:1001900033030008000000000000000033030008E3
:1001A0000000000000000000000000003303000811
:1001B0003303000833030008330300083303000847
:1001C0003303000800F002F800F098F80AA090E865
:1001D000000C82448344AAF10107DA4501D100F002
:1001E0008DF8AFF2090EBAE80F0013F0010F18BF37
:1001F000FB1A43F001031847BC8C0000DC8C0000A4
:10020000103A24BF78C878C1FAD8520724BF30C842
:1002100030C144BF04680C60704700000023002414
:1002200000250026103A28BF78C1FBD8520728BF06
:1002300030C148BF0B6070476E2900F08784702979
:1002400000F0E385662908F0FB80652908F0F88056
:10025000672908F0F580612908F0F48003681B0A1B
:1002600028BF41F08001692900F03484642900F03E
:100270003184752900F02E846F2900F0718578296A
:1002800000F0AF85E92900F00B85E42900F008852E
:10029000F52900F00585EF2900F06E85F82900F0BA
:1002A000AE850368DB0928BF41F08001632901F0B6
:1002B0008F86732901F09486E32901F09F86F32944
:1002C00001F0A486002070471FB508F086F89DE86D
:1002D000030000F067FB01F05DFF04000020002137
:1002E00007F09EFF401C60600020002107F082FFA5
:1002F000E06001F07DF900F015FB1FBD05F046FC44
:10030000114603B405F056FC03BCFFF7DDFF02F015
:1003100012FC05F07FFE00000648804706480047B3
:10032000FEE7FEE7FEE7FEE7FEE7FEE7FEE7FEE7A5
:10033000FEE7FEE7F1410008C501000800487047EC
:10034000B80E002070B5064600F010FB056806F1F7
:100350000B0020F00704B4429CBF002070BD2B4668
:100360006A68BAB11068A04210D304F1080188424B
:100370003CBF5068586007D351681019416011683C
:10038000091B016058601460101D70BD134652684F
:10039000002AE7D12146284600F0F0FA0028DED1F5
:1003A00070BD70B50446051F00F0E0FA0068002C2F
:1003B00014BF446870BD002C18BFAC423CBF20463F
:1003C0006468F8D301680A18AA4218BF456003D1CF
:1003D0002A6805461144016028684119A1421CBFE2
:1003E0006C6070BD6168696021680844286070BDF8
:1003F00053EA020C00F069802DE9F04B4FF0000643
:10040000002B1FBFB3FA83F503FA05F424FA05F6AF
:100410005E4012BF1643B2FA82F502FA05F4C5F146
:1004200020051EBF22FA05FC44EA0C04203556EADA
:10043000044C4FEA144418BF641C4FF000084FF0FE
:100440000009904271EB030C39D3002919BFB1FAAE
:1004500081F701FA07F6B0FA80F700FA07F6C7F15C
:1004600020071EBF20FA07FC46EA0C062037B6FB21
:10047000F4FCA7EB0507103F07F01F0BCBF120069C
:100480000CFA0BFB2CFA06F644BFB3460026202FCD
:10049000A4BF5E464FF0000B5BEA060C08BF4FF0AE
:1004A000010B19EB0B09ABFB027C48EB0608C01BE8
:1004B00006FB02CC0BFB03CC71EB0C01C1E70B4636
:1004C000024641464846BDE8F08B13B54FF00000A8
:1004D0004FF00001AFF30080BDE81C407047B2F15F
:1004E00020030AD5C2F1200301FA02F120FA03F336
:1004F00000FA02F041EA0301704700FA03F14FF0FD
:10050000000070470B460146184600F059BB00003A
:100510007CB51D4616460C00009001D02044401EBC
:10052000074B7B442A4669460190304600F027FB82
:1005300005461CB10020694600F034FB28467CBD0E
:10054000890600000B460146184600F039BB000042
:1005500070B50446C068810713D0800601D5A56A2E
:1005600004E0A169606808442169451A204600F04A
:10057000FBFF002206462946204600F021FF3046B8
:1005800070BD002070BD70B510B1BDE87040DFE7F0
:100590000025074C6E1E07E02046FFF7D9FF00B18B
:1005A0003546206D20F00104002CF5D1284670BDA1
:1005B000BC0E00202DE9F0410C46074616461046B9
:1005C00000F078F82078611C61280AD0722802D0E7
:1005D00077283CD102E00125002405E0022504240F
:1005E00002E0082448F2020511F8010B2B2806D07E
:1005F000622809D011F8010C74280AD00BE045F0EC
:10060000030544F00204EFE745F0040544F001045B
:10061000EAE744F010043846214605F02BFB411C64
:1006200015D00021316171604FF40071F560F16106
:100630007061200704D530460222002100F0C0FE80
:10064000306D40F0010030653046BDE8F08100209B
:10065000FBE72DE9F0410D460646104C206DC10721
:1006600004D0410804D020F00104F7E722460EE050
:100670005420FFF767FE07000ED0206D47F0010100
:10068000084354212065384600F0E4F83A462946EC
:100690003046BDE8F0418DE70020D6E7BC0E0020D3
:1006A00011B14FF4807201E04FF480624FF4007397
:1006B00000F002BF2DE9F04704464FF000094FF06B
:1006C000FF37C568D4E90486A80707D0204600F0A4
:1006D0004BFF304605F07EFA002802DA3846BDE8C6
:1006E000F087280502D54046FFF75BFE4C212046E7
:1006F00000F0B0F8206D20F0010020654846EEE7DC
:1007000030B503461D783DB10A4612F8014B1CB1C5
:10071000AC42FAD15B1CF5E7181A30BD10B5431C8A
:1007200002E010F8011B71B18107FAD14FF00132DC
:1007300002C88C1A8C4314EAC211F9D0C01A0A06F6
:1007400003D0C01E10BDC01A10BD0A0401D0801E07
:1007500010BD0902FCD0401E10BD40EA010370B577
:100760009B072ED14FF00136042A2AD308C810C99E
:100770009D1B9D43121F15EAC61517D0D8B2E1B2D2
:10078000401A50EA056110D198B2A1B2401A50EA5D
:1007900005410AD123F07F4024F07F41401A50EAFE
:1007A000052102D1180EA0EB146070BDA342DBD06E
:1007B00018BA21BA884201D9012070BD4FF0FF302C
:1007C00070BD0AB9002070BD10F8013B11F8014B53
:1007D00063B1A3420AD1521E08D010F8013B11F8B0
:1007E000014B1BB1A34201D1521EEDD1181B70BDAC
:1007F00010B5203AC0F00B80B1E81850203AA0E8BC
:100800001850B1E81850A0E81850BFF4F5AF5FEAEF
:10081000027C24BFB1E81850A0E8185044BF18C9A2
:1008200018C0BDE810405FEA827C24BF51F8043B49
:1008300040F8043B08BF7047D20728BF31F8023B9D
:1008400048BF11F8012B28BF20F8023B48BF00F831
:10085000012B70474FF0000200B5134694469646B0
:10086000203922BFA0E80C50A0E80C50B1F12001C3
:10087000BFF4F7AF090728BFA0E80C5048BF0CC071
:100880005DF804EB890028BF40F8042B08BF7047CF
:1008900048BF20F8022B11F0804F18BF00F8012B41
:1008A000704700004FF0013C50F8042B51F8043B16
:1008B0009A4221D1A2EB0C03934313EACC1317D134
:1008C00050F8042B51F8043B9A4215D1A2EB0C03CB
:1008D000934313EACC130BD150F8042B51F8043B8B
:1008E0009A4209D1A2EB0C03934313EACC13DBD059
:1008F0004FF00000704700BFD01A01BAB1FA81F181
:1009000001F0180122FA01F0CB40C1F12001DBB265
:10091000C0B2C01A2CFA01F3D11A914311EAC311E3
:10092000E6D1704770B5064C7C44064D7D4403E02B
:10093000206820448047241DAC42F9D170BD0000DE
:10094000D4860000D88600002DE9F04117460E46F7
:10095000054633B107FB0354E41B2046B047A542CC
:10096000FAD1A5F10800BDE8F08100000048704709
:10097000B80F0020704770477047704738B504467D
:100980000A460020694601F0DAFB002808BF38BD9E
:1009900002460099204600F0CEFE012038BD01201D
:1009A00001F0A2BBF8B501F0BFFB054600200C46E4
:1009B000102000BF0646A819A0420DD9324669464C
:1009C000002001F0BCFB070008BF01F08DFB009880
:1009D000A04218BF0546C419FFF7C8FF05600746C7
:1009E000F01D20F007004619284600F00AF8B4422E
:1009F00008BFF8BDA21B31463868BDE8F84000F0DA
:100A00009ABE00210160C0E90110704710207047B4
:100A100070B5044685690068C10601D5302600E03E
:100A20002026C00707D070BDD4E901213046904789
:100A3000206A401C20626D1EF6D570BD70B504465C
:100A400085690078C00707D170BDD4E90121202055
:100A50009047206A401C20626D1EF6D570BD096863
:100A60004A0501D540B27047C905FCD500B27047B0
:100A700009684A0501D5C0B27047C905FCD580B2E6
:100A8000704770B50C460546012A05D028788006C7
:100A900000D5EA69002302E0012305E05B1C9342D4
:100AA00002D2E05C0028F9D1A869E618C01AA86152
:100AB000286A184428622846FFF7AAFF04E0D5E90F
:100AC000012114F8010B9047B442F8D32846FFF7F0
:100AD000B5FF70BD2DE9F041064600241068752968
:100AE000314616A510D0FFF7BAFF002802DA4042BF
:100AF00013A507E031688A0701D512A502E049076E
:100B000004D511A5012401E0FFF7B2FF00210A225C
:100B100006F1240709E0B0FBF2FCB0FBF2F302FBA4
:100B20001C00303078541846491C0028F3D1234665
:100B30002A463046BDE8F04100F05CBE00000000EF
:100B40002D0000002B00000020000000116802684A
:100B5000006A530501D508700AE0D30501D5088065
:100B600006E0130603D5C217C1E9000200E00860E1
:100B70000120704701694A1C02610878704700B57E
:100B80008FB0CDE901310021059105497944CDE9C6
:100B900003101146684600F043F90FB000BD000095
:100BA000E5FFFFFF0A6802F8010B0A607047D1E910
:100BB00000239A4202D2531C0B6010707047000051
:100BC000074B70B50D467B44FFF7D9FF0446284616
:100BD00000F0EAF910B14FF0FF3070BD204670BD53
:100BE000835400002DE9FF5F15468A460446DFF86E
:100BF000AC80F8440027D8E900103E46CDE900104B
:100C000010E03AF816106A4602A801F041FA411CB9
:100C100007D02178890603D5E269391891420DD8A9
:100C20000744761C2078800602D5E069B84205DDCD
:100C3000AE42E6DB3AF816000028E2D1A069C01BFC
:100C4000A0612046FFF7E4FED8E90010CDE90010CE
:100C5000002017E03AF818106A4602A801F018FAC6
:100C6000B0F1FF3F81460BD000250DF1080B05E0E8
:100C7000D4E901211BF8050090476D1C4D45F7D3C1
:100C800008F10100B0428046E4DB206A384420626B
:100C90002046FFF7D3FEBDE8FF9F0000827C0000E6
:100CA0002DE9F0418046D21D22F007020025D2E94D
:100CB0000002F52915A614D0011E72F1000106DA12
:100CC0000023D0EB030063EB020211A608E0D8F882
:100CD00000108B0701D50FA602E0490701D50EA62B
:100CE00001251146002408F1240704E000F03DFD31
:100CF00030323A55641C50EA0102F7D12B46324695
:100D000021464046BDE8F04100F074BD00000000FF
:100D10002D0000002B0000002000000030B4002156
:100D200000F1240408E002F00705D208303542EA59
:100D30004372DB086554491C52EA0305F3D1046889
:100D4000002310A2250708D504F020040C4304D08A
:100D5000C46901230CA2641EC46130BC00F04ABD0A
:100D600010B5044621461068FFF782FE0246204671
:100D7000BDE810400023D1E7D21D22F00701D1E9E0
:100D80000023CBE70000000030000000F0B40D4667
:100D90000188090502D5214C7C4402E01F4C7C44AB
:100DA0000E34002100F1240608E002F00F071209BA
:100DB000E75D42EA03721B097754491C52EA0307B4
:100DC000F3D102780023120704D5702D06D009B1A3
:100DD000022311342246F0BC00F00CBD0123103474
:100DE000F8E770B504460D4621461068FFF740FE4F
:100DF000024629462046BDE870400023C6E7D21DC2
:100E000022F00703D3E90023C0E70368126843F028
:100E1000200303600823C3610023B7E7E47A0000DE
:100E20002DE9F05F894604464FF0000ADFF874B1FF
:100E3000FB44C0F820A02046E1688847002874D011
:100E4000252806D0D4E901219047206A401C206261
:100E5000F1E700265F462046E168884720280546DE
:100E600007DB312D05D2781910F8200C08B10643A4
:100E7000F1E7B00701D526F00406C4F81CA000274E
:100E8000C4F818A02A2D09D0284604F083FE38B3F0
:100E900004EB8708303DC8F8185019E059F8041BD6
:100EA000204604EB87029161E1688847012F0546DF
:100EB00018D1E069002820DA26F020061DE0D8F8D5
:100EC000180000EB800005EB40003038C8F818002F
:100ED0002046E1688847054604F05CFE0028EED114
:100EE000012F0AD02E2D08D12046E16888477F1CAB
:100EF0000546022F46F02006C4DBA069002803DA6D
:100F0000404246F00106A061F00701D026F010062D
:100F10006C2D0BD0682D09D04C2D39D06A2D35D0D1
:100F2000742D35D07A2D33D016E038E0E1682F46A5
:100F300020468847B842054609D16C2F26D04FF489
:100F40008060E168064320468847054604E06C2F30
:100F50001AD04FF4807006430DB3A5F14100192853
:100F600002D8203546F400664A46294620462660C7
:100F70004E46FFF761F980B101280BD0F61D26F02F
:100F8000070000F1080956E74020E4E78020D8E791
:100F90000020D6E706F104094DE7284652E7206A0B
:100FA000BDE8F09F747A0000007B00F0800070477D
:100FB00070B50D4601461446D36850692A4604F0C0
:100FC000A5FE002807DA411C07D0E16820F00040A8
:100FD00041F48041E160281A70BD204600F090FA8B
:100FE0004FF0FF3070BDC1680022026021F48051D3
:100FF00041F0400111F4C06FC16001D082607047C0
:1010000002694168891AC269891A816070472DE9AD
:10101000F0470446C06840F48000E060010312D548
:1010200020F40020E060810606D4E26A61688A420A
:1010300000D80A46511A216040F40010E06094F88C
:101040002500BDE8F08720F40010E060800602D59E
:10105000204600F0ACFAE06842F281014FF0FF391F
:101060000140012903D0204600F04AFAB6E0216889
:10107000002600290ADAC94340F480502160C4E9FF
:1010800002606068411C61600078DAE744F2400168
:1010900008420CD020F4A04040F040002660E06000
:1010A00021696068401AE169401AA06096E02169F0
:1010B00091B9C00310D4E069FFF744F92061B0B1E1
:1010C000E06840F4006010F4407FE06002D140F43A
:1010D0008070E06020696060E068D4F814A0C10608
:1010E0001AD5C0030ED5204600F03EFA14E004F1F4
:1010F000240020610120E061E06820F4407040F4A9
:101100008060E6E721696068401AA16901445046A1
:1011100004F023FE0028A6DBE068C0032AD561683E
:10112000E06A884200D808462169451AE069471BF1
:101130001BD02046D4F8188000F016FA08EB050101
:101140005046C4F8188004F008FE00288BDBE068E5
:1011500040F40030E060000202D5A0692844A0619C
:10116000E1692069C91B45180DE0204600F0FCF933
:10117000E769F5E725696168D4E90607491BE56277
:1011800008446560A061E06820F0100010F4C06FB2
:10119000E06002D0204600F05FFFE06840F480503D
:1011A000C4E90260000205D52069E06260606FF06A
:1011B000010046E7224639462846FFF7F9FE411C62
:1011C0000CD02918E16258B1401E2060681C606094
:1011D000E06840F40030E060287832E7484630E7C5
:1011E00065602046FFF7FFFEF8E72DE9F04705466A
:1011F0000C46C86820F4201040F48000C8608006C7
:1012000002D5084600F0D3F9E06841F282014FF0C0
:10121000FF390140022903D0204600F071F9B5E002
:1012200000F42041B1F5004F0FD1C00306D561682D
:10123000E06A884200D80846606006E02069E06203
:101240006060606904F0E6FCA061A0680022EEB274
:1012500000280DDAE1688B050AD4C043A06041F490
:1012600090302260E0606068411C61600670A5E01B
:10127000E0689046226040F40050E060206968BB5E
:10128000606904F0DFFC012704F12405A0B1A08906
:1012900010F4407F08D0E069FFF754F8206118B1DE
:1012A000E06840F4006016E0E7612561E06820F442
:1012B000407040F480600EE0E069FFF743F80028DA
:1012C0002061F1D0E06840F4006010F4407FE060FD
:1012D00002D140F48070E06020696060E0682569B8
:1012E0006FF0010AC1051FD56168E06A884200D825
:1012F0000846411B04D02246284600F00BF9F0BBFB
:10130000E068010203D5E562C4E9015854E0691CB4
:10131000E1626160E16940F48030491EC4E9021075
:1013200030462E70BDE8F087010202D500F480320D
:101330000AE06068411C61600670E0680A2E40F4B3
:101340008030E06006D00022E16A6068814203D903
:101350000B4602E00122F7E70346A7895B1B7F05E6
:1013600003D4E7699F4200DDE2B1814200D8014623
:10137000E5620F1AC4E90158002B09DD00E005E021
:1013800022461946284600F0C5F808B14846C9E784
:1013900047B1A069E5626560C01BA061E06840F0EC
:1013A0001000E060E068000208D56168A069E562AD
:1013B000491B08446560A0615046B3E73046B1E779
:1013C0002DE9F041044616460D464769007B80072B
:1013D0002ED0384604F036FC50BB3EB3012E02D06E
:1013E000022E25D104E0204600F014FE05441DE045
:1013F000384604F00FFCE168002841F01001E1607C
:1014000005DA204600F07CF80120BDE8F081C90330
:101410000BD56268E16A914200D81146A269114475
:101420002269891A814200DD08460544002D01DA4F
:101430000220EAE7E16A6068E268814206D291032D
:10144000E06203D522F4003141F01002A6690027C2
:10145000AE4213DCE16A814201D90B4600E003464B
:1014600003EB060C2369ACEB030CAC4506DD8142B3
:1014700001D98C4600E084469C4505D1A7602760D1
:1014800042F02000A5620DE0AD1BE669AE1B814273
:10149000A66000D90846C01A281A20605819606052
:1014A00022F0200003490840E060002084F84870E2
:1014B000ABE70000BFCFD7FF70B5C468A50713D056
:1014C000650211D4B2F5807F09D0B2F5007F06D055
:1014D000B2F5806F08D1012300F1240106E05D1E02
:1014E0006FF07F46B54201D3012070BD0161C36139
:1014F000416024F470611143C160002070BD0000A0
:10150000C16821F4001141F08001C16000218160B7
:10151000016070472DE9F047814614460E464FF0B2
:10152000FF383248D5685769054209D03846A16965
:1015300004F013FC002811DB2C48C0430540E56093
:101540002B4632464946384604F022FCA16920F079
:101550000042B21A11440028A16103D02046FFF7CF
:10156000CFFF4046BDE8F08770B504460569C06A04
:101570006168884200D80846E16821F42011E160E2
:10158000C90312D5A84208D02246411B2846FFF7BE
:10159000C1FF10B14FF0FF3070BD0020E562C4E91B
:1015A0000150E06820F48030E060002070BD10B58C
:1015B0000446C06820F02000E060A16AA06988426B
:1015C0000DD02046FFF7D0FFE06820F4405040F0F7
:1015D0001000E060A06AA0612069E062606044F2EF
:1015E0004001E0688843E06010BD00001000020088
:1015F00010B542485421FFF72DF941485421FFF717
:1016000029F940485421FFF725F93F493B483C4A16
:101610003F4B08603D490A603A491960531C036515
:10162000481C1065012008653B48344A39A17844BC
:10163000FEF7C0FF20B9384878440A3800F04DFD65
:1016400037482F4A35A17844FEF7B4FF20B9344813
:1016500078440A3800F041FD32482A4A2FA17844E4
:10166000FEF7A8FF20B92F4878440A3800F035FD6E
:1016700040232248DC0000212246FFF71DFF20B155
:1016800025487844543800F028FD1D482246402360
:101690000021FFF711FF20B121487844543800F0B1
:1016A0001CFD1848224610230021FFF705FF0028E3
:1016B00006D01C487844BDE81040563800F00DBDF7
:1016C00010BD104870B5006D20F001040B48FEF706
:1016D000F1FF0B48FEF7EEFF0A48FEF7EBFF09E0CB
:1016E000206D20F001052046FEF7E4FF2046FEF7BE
:1016F00058FE2C46002CF3D170BD0000BC0E00201B
:10170000100F0020640F0020680200206C020020EF
:101710007002002072000000D66E0000770000000A
:10172000C56E0000B56E000010B500F0E5FCBDE828
:10173000104000F0CDBC034640688C46002818BF1E
:1017400088423CBF03464068F8D318681844884272
:1017500007D00CF1030020F00700001D411A521AB7
:101760000146081D0A60FEF71CBE30B5B0F10A0242
:101770004FEA900E71F100034EEA817EB0EB0E004D
:1017800061EB91014FEA101E4EEA017E10EB0E0054
:1017900041EB11114FEA102E4EEA016E10EB0E00D4
:1017A00041EB11214FEA104E4EEA014E10EB0E00B4
:1017B00041EB1141401841F100014FEAD00040EAED
:1017C00041704FEAD10110EB80054FEA810444EAF1
:1017D000907444EB01046D1944EB0404521BA341C3
:1017E0004FF0000348BF0A3200D530BD401C41F124
:1017F000000130BD2DE9F0470D469946924604465A
:1018000000F124080168880604D5E06921F0100180
:10181000216000E00120A84201DD471B00E0002715
:10182000A1697A1902EB0900081AA0612078C006A4
:1018300002D42046FFF7ECF8002608E0D4E90121A5
:101840001AF806009047206A401C761C20624E451C
:10185000F4DB2078C0060AD52046FFF7D9F806E069
:10186000D4E9012130209047206A401C2062381EB4
:10187000A7F10107F4DC07E0D4E9012118F805001D
:101880009047206A401C2062281EA5F10105F3DC68
:101890002046FFF7D3F82078000602D50220BDE8E5
:1018A000F0870120FBE770472DE9FF4F0C461E46ED
:1018B0004FF0FF378BB0D2E90001DDF860800A906D
:1018C0008A46C1F30A5505B93D46002108464FF046
:1018D0000000BAF1000F00F4400005DA00EB8000D0
:1018E0004FF4400101EA50004FEA9059B9F1010F5D
:1018F00000DDB9460A9850EA4A000ED044F610506E
:10190000A5F2FF3545432F14B8F1000F1ED07542E4
:10191000291E1EDDC9F100021CE0B8F1010F4FF0D5
:10192000000001D0302103E0F24305E02154401CC7
:10193000B042FBDB30460022002121540B99C1F854
:101940000880C1E900200FB0BDE8F08FBD1B6D1C01
:10195000DEE74A4600DA694206A800F05FFC06AB03
:1019600093E8070003AB83E8070050460A9900F0AC
:1019700027FD8DE80700A0F500501F380090039860
:10198000002D09DD42F21F014A46084403A90390D5
:10199000684600F086FF08E0A0F500504A461F3870
:1019A00003A90390684600F090FF8DE8070000044B
:1019B000000C03D04FF0FF30410800E01046B8F1B2
:1019C000000F03D00022009215461EE0751E05D4BC
:1019D000FFF7CBFE303262556D1EF9D5B3460122BA
:1019E000084302D000227F1C04E02078302801D177
:1019F00000227F1E002A099786D01DE0112D07DAEC
:101A0000FFF7B3FE303262556D1C50EA0102F5D18A
:101A1000084302D00098C8B10EE00021681E05E01E
:101A2000235C625C63542254401E491C8142F7DBF4
:101A3000AB46A81B401E0990002004F80B000B9831
:101A4000099AC0F80880C0E9002B7CE711264FF006
:101A5000000859E72DE9F04F88460446D21D22F0D0
:101A6000070191B0D1E90001CDE90A0103F064FF5B
:101A700002460B98C00F01D02D2007E02068810797
:101A800001D52B2002E0202101EAC000032A0990A1
:101A900001D0072A05DB03464146204600F07EFBC5
:101AA0000BE12078800601D5E06900E00620B8F15E
:101AB000650F814606D0B8F1660F18D0B8F1670FF0
:101AC00070D131E00020B9F1110F009001DB11233A
:101AD00001E009F101030AAA01A90CA8FFF7E4FE3D
:101AE000DDE90C70002609F10105834647E001207D
:101AF0004B4600904FF000470AAA01A90CA8FFF737
:101B0000D3FEDDE90DB00C995D46002610B909F150
:101B100001000D18B9EB050003D4C0F1FF3609F13F
:101B20000105A5EB09002BE0B9F1010F01DA4FF037
:101B300001090020B9F1110F0090484601DD112381
:101B400000E003460AAA01A90CA8FFF7ADFEDDE9F3
:101B50000C704D4600268346207800070AD4AB451A
:101B600000DA5D4601A8012D04DD411911F8011CC0
:101B7000302907D04F4502DA17F1040F04DA0120AB
:101B800082460FE06D1EEEE7002F02DCED1B3E44A7
:101B900003E0781CA84200DD7D1CB81B00F1010A9F
:101BA0004FF000472078000703D4AA4501DB4FF02F
:101BB000FF3A0021B7F1004F0DF143088DF84310B3
:101BC00024D002202B23002F01DA7F422D230A216B
:101BD000021EA0F1010000DC5FB197FBF1FC97FB56
:101BE000F1F201FB1C7C17460CF1300C08F801CD1A
:101BF000EEE7A8F1010003702188090501D5452110
:101C000000E06521A0F1010800F8011C09980FA966
:101C1000A1EB0807FF1D00B10120411901EBEA709B
:101C2000A1693844081A401EA0612078C00602D479
:101C30002046FEF7EDFE099828B1D4E9012190472E
:101C4000206A401C20622078C00622D52046FEF77C
:101C5000DFFE1EE0002E04DBB34502DD01A8805D3F
:101C600000E03020D4E901219047206A401C206226
:101C7000761CAAF101005FEA000A0AD100F08AFA94
:101C8000C0680168405CD4E901219047206A401C8B
:101C90002062281EA5F10105DCDC07E0D4E9012162
:101CA00018F8010B9047206A401C2062381EA7F1EB
:101CB0000107F3DC2046FEF7C1FE032011B043E626
:101CC0002DE9F04F04460D46D21D22F0070089B0E1
:101CD000D0E900974846394603F02EFE0246F80F39
:101CE00001D02D2307E02068810701D52B2302E0D6
:101CF000202101EAC0038DF820300BB1012000E063
:101D00000020032A824601D0072A04DB2946204608
:101D100000F044FA3FE12078800601D40D2500E070
:101D2000E569C7F30A560D2D49DA00214FEA175B22
:101D300008464FF00000002F00F4400007DA00EBE7
:101D400080004FF4400100EBD07001EA6000811583
:101D5000012901DD4FF0FF3100224FEA850CBCF173
:101D6000180F06D31346ACF118004FF08052C24052
:101D700003E04FF4801323FA0CF30CF10C0CBCF1CC
:101D8000200F04D3ACF1200C09FA0CF001E007FAA3
:101D90000CF000294FF0004801DD18B90FE00ED11A
:101DA00040450CD319EB02095F4121B9404502D1EE
:101DB0009F4329EA0209BBEB175F00D0761C2088FD
:101DC000000502D57B48784402E07A487844193807
:101DD00008AA302302F80A30037C0AF10101002E20
:101DE0000AF1020A53546A4602DC4FF0300101E066
:101DF0004FF031014FF001088DF8001002D0A6F22B
:101E0000FF3603E059EA470100D06B4E002D02DC9B
:101E10002178090704D54FF002082E218DF8011012
:101E2000C44600210BE0C7F303433F01C35C491CD8
:101E30006D1E02F80830052908F1010801DA002DAD
:101E4000F1DC00210CE000EB1973491C1B786D1EBE
:101E5000082902F808304FEA091908F1010801DAE7
:101E6000002DF0DC21688B0602D516E0A8F10108F0
:101E7000E04505DD02EB080313F8013C302BF5D0FB
:101E8000B8F1000F09DD02EB080313F8013C2E2B1B
:101E900003D1090701D4A8F10108002D05DD3E2179
:101EA00002F808106D1E08F10108407C002E02F8AF
:101EB000080008F1010804DA2D20764202F8080033
:101EC00002E02B2002F808000A214FF47A708642C3
:101ED00008F101080BDB96FBF0F3303302F8083011
:101EE00096FBF0F308F1010800FB136601E0642E95
:101EF0000CDB642096FBF0F3303302F8083096FBDD
:101F0000F0F308F1010800FB136601E00A2E06DB7E
:101F100096FBF1F0303002F8080008F1010896FB5A
:101F2000F1F001FB1060303002F80800A16908F1FF
:101F3000010808EB050202EB0A00081AA0612078EC
:101F4000C00602D42046FEF763FD216A08AE01EB0D
:101F50000A00206204E0D4E9012116F8010B904741
:101F6000BAF1010AF7D22078C00602D52046FEF762
:101F70004FFD6E4609E016F8010B3E280FD0D4E95C
:101F800001219047206A401C2062B8F10108F2D27A
:101F90002046FEF753FD09B00320BDE8F08F206A0C
:101FA0002844206203E0D4E90121302090476D1ECF
:101FB000EBD3F8E7026B000002FCFFFF10B54369AA
:101FC00013B1AFF3008001E0FEF75BFD012010BD0F
:101FD000127800F124010A7000224A700122EDE714
:101FE00011684FF0FF32E9E710B5436913B1AFF361
:101FF000008001E0FEF7F6FD012010BD128800F11F
:10200000240182840022C2840122EDE711684FF08E
:10201000FF32E9E710B50146C268900703D0900689
:1020200007D5886A0AE0FEF789F901210160881E58
:1020300010BD8B69486818440B69C01A91F8483084
:102040001BB191F84910401A10BD1103FCD50028AE
:10205000FADD401E10BD000070B5054640F20226B4
:102060000A4C0FE094F85000C00708D0AC4206D0EC
:10207000E06836EA000002D12046FEF769FA206DDA
:1020800020F00104002CEDD170BD0000BC0E00203A
:1020900070B516460C46054600F074F8036893F8D0
:1020A0000101012806D0FF2C0FD8185D68B101206E
:1020B0002C7070BDD3F807013246214603F2071396
:1020C00003442846BDE8704018474FF0FF3070BD0C
:1020D000002801D000F050B8704710B500F026F984
:1020E000BDE81040FFF7F4BF10B500F039F9BDE8C6
:1020F0001040FFF7EDBF000010B5002102A000F076
:10210000FBF8012010BD00005349475056464E3A97
:102110002050757265207669727475616C20666EE8
:102120002063616C6C656400124B694600F5805257
:102130008A421A6001D8114670471960704730B55D
:102140000C4D6B46A3F580532C6822449A420FD85D
:102150009B1A02F5805003EBD37302EB63039842A2
:1021600000D91846C01D20F007020C60101B2A6021
:1021700030BD00007402002001491820ABBEFEE70C
:102180002600020010B500F005F8001D10BD00BFCC
:102190009160000000487047BC0F00202DE9F0411D
:1021A0001F46044603260168072A01F4006004DB89
:1021B00008B116A505E016A503E008B115A500E0D5
:1021C00015A521F010002060A069C01EA0610FB10C
:1021D000401EA0612046FEF71BFC4FB1D4E901214F
:1021E00038469047206A401C2062C01C206206E0EE
:1021F000206AFAE7D4E9012115F8010B9047761E11
:10220000F8D22046FEF71AFCBDE8F0814E414E00A0
:102210006E616E00494E4600696E66002DE9F0471A
:10222000814616468AB0334878440DC88DE80D00C3
:1022300030487844801C03AC0DC884E80D0041F69A
:102240009B300844372190FBF1F290FBF1F5A5F1AA
:10225000800501FB12041B3C02D56442012000E012
:102260000020DFF890A080460027FA44AAF1BE0AB9
:102270000DE0E00709D03246684607EB47010AEB5C
:10228000810100F022FB8DE8070064107F1C002C08
:10229000EFD1184F7F44AC3F18E0E80714D007EBAC
:1022A00004100DF1180A90E80E008AE80E00C068CC
:1022B000F04201D198190890324606A903A800F00F
:1022C00004FB03AB83E807006D10641C002DE4D110
:1022D00032466946B8F1000F03A802D000F0E1FAD7
:1022E00001E000F0F2FAC9E90001C9F808200AB0DB
:1022F000BDE8F0873067000070B505460C460A203F
:1023000000E06D1C00F054F835B128780028F8D1B1
:1023100002E0641C00F04CF814B120780028F8D1D9
:10232000BDE870400A2000F043B8000010B5014637
:1023300002A0FFF7E1FF012010BD00005349475202
:10234000545245443A2052656469726563743A2078
:1023500063616E2774206F70656E3A200000000084
:1023600010B5012805D0002103A0FFF7C5FF01200B
:1023700010BD09A1F8E7000053494752544D454D9F
:102380003A204F7574206F662068656170206D6516
:102390006D6F7279000000003A2048656170206D11
:1023A000656D6F727920636F727275707465640009
:1023B00008B569468DF800000320ABBE08BD704724
:1023C0005FEA400C08BF91F0000F4FEA8C234FEA00
:1023D000C12243EA51514FEA1C5018BF00F5F040AA
:1023E0004FEA300018BF41F000415FEA6C5C00F03A
:1023F0002980BCF1FF3F08BF40F080407047130CBC
:1024000006BF12044FF0100C4FF0000C130E04BF67
:1024100012020CF1080C130F04BF12010CF1040C92
:10242000930F04BF92000CF1020CD30F04BF5200B3
:102430000CF1010C11464FF00002A0F11F00A0EBBF
:102440000C00704711F0004F08BF704731F0004199
:102450003FF4D5AF0B0C06BF09044FF0100C4FF042
:10246000000C0B0E04BF09020CF1080C0B0F04BF8B
:1024700009010CF1040C8B0F04BF89000CF1020C54
:10248000CB0F04BF49000CF1010CCCF12003A0EBF1
:102490000C0022FA03F302FA0CF241EA030100F104
:1024A0000100704720F07F4C80EA030023F07F4753
:1024B000ACEB070303F57C5300F0004003F1FF038E
:1024C0002DE980494FEA154B09B44FEA144325EA38
:1024D0000B4E24EA03480FF2042606EB13274908A3
:1024E0003E785FEA320203FB0667C7F5000707FB89
:1024F00006F64FEA54374FEAD64606F1020607FBC6
:10250000066CCCF1005C4FEA1C472CEA074C07FB39
:1025100006F40CFB06F504EB15464FEA961634BF9D
:1025200000204FF000404FEAD13706FB07FC4FEA8E
:102530001C4C0CFB0BF7D21B03FB0CF761EB0701E8
:102540000CFB0EF7B0EB074072EB17420CFB08F7E1
:1025500034BFA2EB0742B2EB074261EB17414FEAEF
:102560000C444FEA910706FB07FC4FEA1C4C0CFB9E
:102570000BF7B0EBC74072EB573203FB0CF734BFDD
:10258000A2EBC742B2EBC74261EB57310CFB0EF72F
:10259000B0EBC70072EB57720CFB08F734BFA2EB2D
:1025A000C702B2EBC70261EB5771039F4FEA81612B
:1025B00041EA921104EBCC044FEAD1374FEA826230
:1025C00006FB07FC42EA90124FEA80604FEA1C4C7F
:1025D0000CFB0BF7D21B03FB0CF761EB07010CFBA9
:1025E0000EF7B0EB074072EB17420CFB08F734BF55
:1025F000A2EB0742B2EB074261EB17414FEA8C5561
:102600004FEA910704EB9C2406FB07FC4FEA1C4CA5
:102610000CFB0BF7B0EBC74072EB573203FB0CF728
:1026200034BFA2EBC742B2EBC74261EB57310CFBA0
:102630000EF7B0EBC70072EB57720CFB08F734BF14
:10264000A2EBC702B2EBC70261EB577115EB4C2549
:102650004FEA816141EA92114FEA82624FEAD13733
:1026600042EA901206FB07FC44F100044FEA806046
:102670004FEA1C4C0CFB0BF7D21B03FB0CF761EB76
:1026800007010CFB0EF7B0EB074072EB17420CFB97
:1026900008F734BFA2EB0742B2EB074261EB1741E8
:1026A00015EB1C154FEA813141EA92414FEA823223
:1026B00042EA90424FEA80304FEA0C7644F100043F
:1026C00048EA03434EEA0B484FF0000EB2EB080C09
:1026D00071EB030724BF624639464EEB0E0E4FF0F6
:1026E000000B0018524149414BEB0B0BB2EB080CAD
:1026F00071EB03077BF1000B24BF624639464EEBBA
:102700000E0E4FF0000B0018524149414BEB0B0BE2
:10271000B2EB080C71EB03077BF1000B24BF6246A0
:1027200039464EEB0E0E51EA020718BF46F001067D
:1027300016EB0E7655F1000254F1000103D5BDE809
:102740008901BDE80088BDE88901BDE80048B619E7
:10275000524141EB0101A3F10103704780807F7E6C
:102760007D7C7B7A79787776767574737271717007
:102770006F6E6E6D6C6C6B6A6A69686867666665B9
:102780006464636362616160605F5F5E5E5D5D5C47
:102790005C5B5B5A5A5959585857575656555555B8
:1027A0005454535352525251515050504F4F4F4E18
:1027B0004E4D4D4D4C4C4C4B4B4B4A4A4A49494966
:1027C00048484847474747464646454545444444A8
:1027D000444343434342424242414141002B26D4B9
:1027E000770021D01CB54FEA370703B44FF0100033
:1027F0004FF010014FF000000FBCBDE810400BF18E
:10280000010BBBF1010F08BF5FEA170722BF12F1EE
:10281000010211F101014FF0004143F1000300F00A
:10282000004043EA00007047F9D35708DAE746EA68
:10283000064613F1400F4FEA16461FDD13F1200F35
:10284000DFBF16430A46002120335B42C8D0C3F1E4
:10285000200746EA064602FA07F74FEA164646EA16
:102860000706C3F1200722FA03F201FA07F721FA5B
:1028700003F14FF0000342EA0702B1E746EA02061D
:1028800046EA06464FEA164646EA0106BCBF46EA55
:102890000646360C4FF000034FF000024FF00001E7
:1028A0009EE72DE9C048934630B491E8380007C848
:1028B00031EA400C48BF34EA430C03D5FFF7F2FD80
:1028C000FFF78CFFF0BCBDE800882DE9C0489346B7
:1028D00030B491E8380007C810F0804F08BF13F0FB
:1028E000804F03D100F005F8FFF778FFF0BCBDE89A
:1028F000008820F07F4780EA030023F07F4C07EB3D
:102900000C03A3F57C5300F00040A3F1FE0392F00A
:10291000000F00F0B38095F0000F00F077802DE9F4
:1029200001494FEA11404FEA144621EA004800FBF2
:1029300006FC24EA064708FB06F607FB08F800FB3E
:1029400007F718EB06484CEB164C4FEA124B18EB06
:1029500007484FEA15464CEB174022EA0B4E0BFB9B
:1029600006FC25EA06470EFB06F607FB0EFE0BFBF0
:1029700007F71EEB064E4CEB164C4FF000061EEB15
:10298000074E4CEB174B18EB0B0840F1000018EB0F
:102990000E0B58EB000840F100008F1A4FF00001B9
:1029A0003CBFC943661B14BFB5EB040C00213CBF00
:1029B000C943F61B4FEA17444EEA8E0E27EA044538
:1029C0004FEA1C4704FB07622CEA074C05FB07F79C
:1029D0000CFB05F604FB0CFC16EB074642EB17421A
:1029E00016EB0C4642EB1C421BEB060658EB0202B0
:1029F000414146EA9E0601D5BDE80189B61952411A
:102A000041EB0101A3F10103BDE801894FEA14453F
:102A10004FEA114724EA054621EA074C05FB07F473
:102A200006FB07F70CFB06F105FB0CFC11EB07415D
:102A300044EB17444FEA124711EB0C4144EB1C44A2
:102A400022EA074C05FB07F206FB07F70CFB06F62C
:102A500005FB0CFC16EB074642EB174216EB0C4647
:102A600042EB1C456A1854F1000148BF7047B61983
:102A7000524141EB0101A3F10103704795F0000FB2
:102A800037D04FEA11424FEA144721EA024624EABE
:102A9000074C02FB07F106FB07F70CFB06F402FBF1
:102AA0000CFC14EB074441EB17414FEA154714EBBC
:102AB0000C4441EB1C4125EA074C02FB07F506FBE1
:102AC00007F70CFB06F602FB0CFC16EB074645EB82
:102AD000174516EB0C4645EB1C42121951F100014B
:102AE00048BF7047B619524141EB0101A3F1010300
:102AF00070474FEA14454FEA114724EA054621EA98
:102B0000074C05FB07F106FB07F70CFB06F24FF03D
:102B1000000605FB0CFC12EB074241EB174112EBE0
:102B20000C4251EB1C4148BF7047921841EB010128
:102B3000A3F10103704710B504F09AF8BDE8104006
:102B400003F072BE0021016041608160C160704786
:102B50000021014803F050B9006400400021014801
:102B600003F04AB9006400400021014803F044B971
:102B7000006400400121014803F03EB900680040B4
:102B80000121014803F038B90068004001210148E3
:102B900003F032B90068004090F83510022903D0E4
:102BA0008021416501207047052180F835100068BB
:102BB000016821F001010160002070470148806830
:102BC00070470000380200200248816802781144F2
:102BD00081607047380200200B4810B5016841F44D
:102BE00000710160016841F480610160016841F495
:102BF00080710160032000F071F80F2000F006F8EA
:102C000000F06AF8002010BD003C024010B588B00A
:102C100001A902A800F0B2FB00F0D0FB254A019008
:102C20000021136843F008031360126802F00802E1
:102C30000792214A136843F008031360136823F0D6
:102C4000080313601E4C1D4A22604A1EE260059B69
:102C50001C4A002B18BF4000B0FBF2F0216180B28B
:102C6000A160401E61616060154800F019FE1748C0
:102C700015490068C0F8081115494FF48020C1F8C3
:102C8000000100210E4800F027FE04210C4800F04E
:102C900023FE2068426A0F490A60096801F57A71CB
:102CA00081632068C16841F00401C16008B0002060
:102CB00010BD00004038024020380240000C0040A7
:102CC000D007002040420F00257F000808ED00E0FB
:102CD00004E000E0D401002070470000074900F044
:102CE00007000A684FF6FF031A4042EA002040F04E
:102CF000FD7040F080600860704700000CED00E05F
:102D0000F8B51A48016841F0805101600068184F19
:102D100000F08050012600903E64FFF74FFF154CF5
:102D20000546606810F4803F0AD100BFFFF746FFF8
:102D3000401BB0F57A7F11D8606810F4803FF5D061
:102D40007E64FFF73BFF0546606810F4003F0BD13F
:102D5000FFF734FF401BB0F57A7F01D90320F8BD9F
:102D6000606810F4003FF3D00020F8BD4038024006
:102D700000000E42007000402DE9F84F0446002785
:102D800000783E4610F0010FFE4D09D02868A16B77
:102D900020F0C06008432860A06B002808BF01270E
:102DA000207810F0020F09D02868E16B20F0C050A5
:102DB00008432860E06B002808BF0127207810F046
:102DC000040F0ED02868216B20F4401008432860BF
:102DD000206BB0F5801F08BF012702D0002808BF74
:102DE0000126207810F0080F0ED02868616B20F4BF
:102DF000400008432860606BB0F5800F08BF0127D2
:102E000002D0002808BF012620784FF0000B10F0F8
:102E1000200F6ED0DC48016841F0805101600068ED
:102E2000DFF8688300F080500090D8F8000040F48C
:102E30008070C8F80000FFF7C1FE8146D8F8000096
:102E400010F4807F0CD100BFFFF7B8FEA0EB0900A3
:102E5000022800F2DC81D8F8000010F4807FF3D063
:102E6000DFF82C93D9F8000010F440702CD0B4F89F
:102E7000401001F44071814226D0D9F80000C549C4
:102E8000012220F440700A60C1F800B0C9F80000C7
:102E9000D9F8000010F0010F16D0FFF78FFE804622
:102EA000D9F8000010F0020F08BF41F2883A0BD1A8
:102EB000FFF784FEA0EB0800504500F2A881D9F886
:102EC000000010F0020FF3D0206C4FF4407131EA93
:102ED0000002B1491CBF086820F4F81056D0086001
:102EE000D9F80000B4F84010C1F30B010843C9F849
:102EF0000000207810F0100F04D0A84994F8580072
:102F0000C1F8E001207810F0800FA54805D00168D5
:102F1000E26C21F4400111430160217811F0400F6F
:102F200005D00168A26C21F0806111430160218805
:102F300011F4807F0AD00168626D21F000611143B5
:102F40000160616DB1F1006F08BF0126218811F4A5
:102F5000007F05D00168626C21F08051114301604F
:102F60002188DFF840A2DFF84092DFF8408211F4B8
:102F7000806F09D00168226D21F00051114301607A
:102F8000206DB0F1005F0ED06FB908E00A6820F440
:102F9000407022F4F81220F0704010439FE7206840
:102FA000B0F5006F7DD1CAF868B0FFF707FE07469D
:102FB000D8F8000010F0006F0AD000BFFFF7FEFD48
:102FC000C01B02286ED8D8F8000010F0006FF5D1B1
:102FD0002168774811F0010F01D0A26B22B111F0E6
:102FE000020F17D0E16BA9B901680268C1F3014172
:102FF000491CD4E9013C21F00041C2F3036209EB12
:10300000014141EA026143EA8C13227D194341EAFE
:1030100002710160216811F0040F03D0226BB2F538
:10302000801F06D011F0080F21D0616BB1F5800F21
:103030001DD101680268C1F30141491CD4E9013C7A
:1030400043EA8C1321F0004194F810C009EB0141D0
:1030500041EA0C61C2F30272194341EA0271016054
:103060002968A26A21F01F01521E1143296021889C
:1030700011F4806F1DD0216DB1F1005F19D101688D
:103080000268C1F30141491CD4E9013C43EA8C13B5
:10309000D4F80CC0C2F302724FEA5C0C09EB0C4C82
:1030A00001E02FE0A7E04CEA4161194341EA0271D7
:1030B0000160218811F4006F0FD0D4E9011241EAB8
:1030C0008211E268237C520809EB024242EA036261
:1030D0001143227D41EA027101600120CAF86800B3
:1030E000FFF76CFD0746D8F8000010F0006F09D11B
:1030F000FFF764FDC01B02287DD8D8F8000010F04F
:10310000006FF5D0E6B3CAF870B0FFF757FD06467A
:10311000D8F8000010F0005F0AD000BFFFF74EFDA6
:10312000801B022873D8D8F8000010F0005FF5D19A
:103130002168204811F0040F01D0226B22B111F058
:10314000080F3AD0616BE1B90168D4E90623C1F3F5
:103150000141491C42EA831221F0004194F82430D5
:1031600009EB014141EA0361114301602968E26A08
:103170006FF0FF0321F4F85103EB022211431BE02F
:103180004DE01AE08C3802404038024000700040A8
:1031900070380240400E4742083802400010474253
:1031A00094380240000047420000FFFF0038024010
:1031B00084380240883802402960218811F4807FD9
:1031C00012D0616DB1F1006F0ED10168D4E9062310
:1031D00042EA8312236AC1F303615B0809EB0343EC
:1031E00043EA0161114301600120CAF87000FFF752
:1031F000E5FC044600E00AE0D8F8000010F0005FAB
:103200000DD100BFFFF7DAFC001B022802D9032012
:10321000BDE8F88FD8F8000010F0005FF2D0002071
:10322000BDE8F88F002804BF012070472DE9F04762
:103230004D4E04460F46306801F0FF0800F00F00C5
:10324000B84206D286F80080306800F00F00B8421D
:1032500061D12068454D10F0020F14D010F0040F1A
:1032600003D0286840F4E0502860207810F0080F60
:1032700003D0286840F4604028602868A16820F0E6
:10328000F00008432860207810F0010F37D0606804
:103290003749012823D0022818BF0328096823D002
:1032A00011F0020F37D0296821F00301084328608C
:1032B000FFF784FC81462868616800F00C00B0EBE1
:1032C000810F18BF41F2883A19D000BFFFF776FC92
:1032D000A0EB090050450BD90320BDE8F087096831
:1032E00011F4003FDFD116E011F0007FDBD112E0D6
:1032F0002868616800F00C00B0EB810FE6D13068FF
:1033000000F00F00B84209D986F80080306800F05C
:103310000F00B84202D00120BDE8F087207810F0FD
:10332000040F05D02868E16820F4E05008432860C5
:10333000207810F0080F06D02868216920F460403A
:1033400040EAC100286000F059F82968094AC1F331
:103350000311515CC840084908600F20FFF756FC74
:103360000020BDE8F0870000003C02400838024021
:10337000003802400C880008440200200F2202603E
:103380000C4A136803F003034360136803F0F0036F
:103390008360136803F4E053C36012684FF4E05392
:1033A00003EAD20202610448006800F00F000860DE
:1033B0007047000008380240003C024004480549BC
:1033C00000680968044AC1F38221515CC840704713
:1033D00044020020083802401C88000804480549BF
:1033E00000680968044AC1F34231515CC840704723
:1033F00044020020083802401C880008274810B505
:10340000006810F00C02264808BF10BD2549042AA8
:1034100004BF084610BD244C082A12D00C2A18BF3D
:1034200010BD2268236802F03F0213F4800F26D0FB
:1034300020680023C0F38810A0FB0101FCF7D8FF2F
:1034400025E02268236802F03F0213F4800F08D0C1
:1034500020680023C0F38810A0FB0101FCF7C8FF1F
:1034600007E021680023C1F38811A1FB0001FCF7EC
:10347000BFFF2168C1F30141491C49000AE02168EE
:103480000023C1F38811A1FB0001FCF7B1FF216803
:10349000C1F30271B0FBF1F010BD0000083802402A
:1034A0000024F40000127A00043802402DE9F84F9D
:1034B00004460078DFF8988310F0010F4FF00C06F7
:1034C000A8F1040562D008F10400016801F00C01C4
:1034D000042912D0016801F00C01082904D1D8F8A0
:1034E000001011F4800F08D1006836EA00000DD1F9
:1034F000D8F8000010F4800F08D0286810F4003FBE
:1035000044D06068002800F0A0813FE06068B0F51A
:10351000803F19D0B0F5A02F28680CBF40F4802060
:1035200020F48030286028680CBF40F4803020F4FC
:10353000802028606068B8B1FFF740FB0746286824
:1035400010F4003F05D021E0286840F48030286066
:10355000F0E7FFF733FBC01B642800F230812868D6
:1035600010F4003FF5D011E0FFF728FB074628686C
:1035700010F4003F0AD000BFFFF720FBC01B6428F7
:1035800000F21D81286810F4003FF5D12078B14F7A
:1035900010F0020F4FD0B048016811F00C0F1ED090
:1035A000016801F00C01082904BFD8F8001011F4DB
:1035B000800F14D0006836EA000004BFD8F800007D
:1035C00010F4800F0BD0E06818B301203860FFF7CB
:1035D000F5FA0646286810F0020F09D011E02868B5
:1035E00010F0020F1CBFE06801280AD000F02DB9CE
:1035F000FFF7E4FA801B02287ED8286810F0020F3B
:10360000F6D02868216920F0F80040EAC10028605F
:1036100011E000203860FFF7D1FA0646286810F064
:10362000020F08D0FFF7CAFA801B022864D8286866
:1036300010F0020FF6D1207810F0080F2AD087483A
:10364000874E616999B101210160FFF7B7FA8146A0
:10365000306810F0020F1DD1FFF7B0FAA0EB09009F
:10366000022849D8306810F0020FF5D012E000218E
:103670000160FFF7A3FA8146306810F0020F09D00D
:10368000FFF79CFAA0EB0900022835D8306810F04B
:10369000020FF5D1207810F0040F77D071484FF069
:1036A000000B006810F0805F0AD16E48016841F09D
:1036B0008051016000684FF0010B00F080500090D5
:1036C000694E306810F4807F14D1306840F4807007
:1036D0003060FFF773FA8146306810F4807F09D1BB
:1036E000FFF76CFAA0EB0900022868D8306810F4E4
:1036F000807FF5D05D4E00E061E0A06801281BD01E
:10370000052830680CBF40F0040020F00100306054
:1037100030680CBF40F0010020F00400C6F8000043
:10372000A06841F2883AB8B1FFF748FA814630689C
:1037300010F0020F05D021E0306840F00100306049
:10374000EEE7FFF73BFAA0EB0900504537D83068A9
:1037500010F0020FF5D011E0FFF730FA8146306823
:1037600010F0020F0AD000BFFFF728FAA0EB090003
:10377000504524D8306810F0020FF5D1BBF1000F8E
:1037800004D03848016821F080510160A169E9B393
:103790003148006800F00C00082856D04FF00000B7
:1037A000022938660ED0FFF709FA0446286810F09F
:1037B000007F47D0FFF702FA011B02293ED9032000
:1037C000BDE8F88FFFF7FAF90646286810F0007F89
:1037D00009D000BFFFF7F2F9801B0228EFD8286854
:1037E00010F0007FF6D1D4E907010843A16A204A0E
:1037F000490802EB0141626A41EA8211084394F8E8
:103800002C1040EA016194F8300000E01AE041EA2F
:103810000070C8F8000001203866FFF7CFF90446B1
:10382000286810F0007F0DD1FFF7C8F9001B0228AF
:10383000C5D8286810F0007FF6D003E0286810F0A3
:10384000007FB7D10020BDE8F88F0120BDE8F88FD8
:10385000043802400000474208380240800E4742C8
:103860007438024040380240007000407038024016
:103870000000FFFF0268042303FA01F1136A8B437F
:103880001362136A1943116201684A6C42F40042E0
:103890004A640068016841F001010160002070473E
:1038A000002804BF0120704710B5044690F8390085
:1038B00028B9002084F83800204600F00CF80220D7
:1038C00084F83900211D206800F0BAFC012084F83A
:1038D0003900002010BD70470268012303FA01F18E
:1038E000136A8B431362136A194311620168A1F1D1
:1038F0008042B2F580321CBFA1F18042B2F5823223
:1039000003D14A6C42F400424A640068016841F005
:10391000010101600020704790F83830012B04BF8E
:10392000022070472DE9F001012480F8384002237D
:1039300080F83930834BDFF810C242B1042A44D0FA
:10394000082A7DD00C2A00F0C08000F0F1B802688F
:10395000156A25F001051562156A56689769D1F850
:10396000008027F0730748EA0707D1F8088025F0A0
:10397000020548EA05059A4218BF624511D1D1F8FF
:103980000CC025F008034CEA030323F00405D1F82A
:1039900014C026F440734CEA0303D1F818C04CEA73
:1039A0000306566097614B6853631562026893691A
:1039B00043F0080393610268936923F00403936161
:1039C00002689369096919433FE00268156A25F0A6
:1039D00010051562156A56689769D1F8008027F4BA
:1039E000E64747EA0827D1F8088025F0200545EA90
:1039F00008159A4218BF624511D1D1F80CC025F0C4
:103A0000800343EA0C1323F04005D1F814C026F4D8
:103A1000406343EA8C03D1F818C043EA8C06566031
:103A200097614B68936315620268936943F400637E
:103A300093610268936923F480639361026800E0F4
:103A400005E09369096943EA0121916170E0026828
:103A5000156A25F480751562166A5568D769D1F81C
:103A6000008027F0730748EA0707D1F8088026F49A
:103A7000007646EA08269A4218BF624511D1D1F86D
:103A80000CC026F4006343EA0C2323F48066D1F8CB
:103A900014C025F4405343EA0C13D1F818C043EA8C
:103AA0000C155560D7614B68D36316620268D36901
:103AB00043F00803D3610268D36923F00403D361A0
:103AC0000268D3690969194331E00268156A25F46F
:103AD00080551562176A5568D669D1F8008026F4BA
:103AE000E64646EA0826D1F8088027F4005747EA58
:103AF00008379A4218BF624505D1D1F814C025F4A1
:103B0000804343EA8C155560D6614B681364176295
:103B10000268D36943F40063D3610268D36923F474
:103B20008063D3610268D369096943EA0121D161E5
:103B300080F83940002180F83810BDE8F0010846CF
:103B4000704700000000014000040140002804BF4D
:103B50000120704710B5044690F8390028B90020BC
:103B600084F83800204600F00CF8022084F8390070
:103B7000211D206800F064FB012084F8390000203A
:103B800010BD70470268012303FA01F1136A8B43E9
:103B90001362136A194311620168A1F18042B2F500
:103BA00080321CBFA1F18042B2F5823203D14A6C4F
:103BB00042F400424A640068016841F0010101607A
:103BC00000207047006881B0016811F0010F04BF48
:103BD000016811F0020F03D04068009001B07047F7
:103BE000016811F0040F04BF016811F0080FF3D150
:103BF00001B0704770B5016804460868CA684B692F
:103C000010F00F0F4FF0200545D003F0010C02F427
:103C100090765CEA060C00F0F18010F0010F18BFFE
:103C200012F4807F05D0D4F83CC04CF0010CC4F8ED
:103C30003CC010F0040F18BF13F0010F05D0D4F8EA
:103C40003CC04CF0020CC4F83CC010F0020F18BF8E
:103C500013F0010F05D0D4F83CC04CF0040CC4F8AC
:103C60003CC010F0080F18BF13F0010F03D0E36B36
:103C700043F00803E363E36B002B08BF70BD10F053
:103C8000200F18BF12F0200F72D094F83A2020466F
:103C9000222A44D07CE010F0200F18BF12F0200F31
:103CA00067D094F83A202046222A18BF70BD826857
:103CB000B2F5805F1ED002695AB3496801F07F02F5
:103CC000816A4B1C83620A70C18D491E0904090C6C
:103CD000C18518BF70BD0168CA6822F49072CA60BD
:103CE00001684A6922F001024A6180F83A5000F006
:103CF000FDF870BD0369826A4968002B14BFC9B220
:103D0000C1F308011180816A14BF491C891C8162BA
:103D1000DAE74A68816A4B1C83620A70D4E78268DA
:103D2000B2F5805F0FD00269E2B1496801F07F020D
:103D3000816A4B1C83620A70C18D491E0904090CFB
:103D4000C18525D116E00369826A4968002B14BF3A
:103D5000C9B2C1F308011180816A14BF491C891CD2
:103D60008162E9E74A68816A4B1C83620A70E3E773
:103D70000EE043E00168CA6822F49072CA600168EC
:103D80004A6922F001024A6180F83A5000F0AEF828
:103D900020684169E26BC1F3801102F0080211430F
:103DA00026D0C16821F49071C1602068416921F07A
:103DB0000101416184F83A502068416911F0400FD7
:103DC00012D0416921F040014161606B60B12D4921
:103DD0000165606BFEF7E0FE002808BF70BD606BF8
:103DE000016DBDE8704008472046FFF7EBFE70BD4F
:103DF0002046FFF7E7FE0020E06370BD10F0800F63
:103E000018BF12F0800F2CD094F83900212818BF69
:103E100070BDA068B0F5805F206A16D0411C216299
:103E2000216800784860E08C401E0004000CE084AB
:103E300018BF70BD2068C16821F08001C160206892
:103E4000C16841F04001C16070BD0088C0F3080046
:103E5000486020690028206A14BF401C801C206232
:103E6000E1E710F0400F14BF12F0400F70BD204684
:103E7000CA6822F04002CA6084F8395000F037F86E
:103E800070BD000001430008002804BF01207047F6
:103E900070B5044690F83900002520B984F83850F0
:103EA000204600F022F8242084F839002068C168F8
:103EB00021F40051C160204600F02AFA206801690F
:103EC00021F4904101612068416921F02A0141619A
:103ED0002068C16841F40051C160E563202084F886
:103EE000390084F83A00002070BD704770470068C0
:103EF000016811F0400F1CBF6FF040010160704776
:103F000010B5012000F00AF8002818BF10BD00F01D
:103F10005DF8002818BF10BDFEE7000070B5294904
:103F2000AAB000260A6842F080520A60096801F0CF
:103F30008051299124490A6842F440420A60096884
:103F400001F4404129910121009100280CBF4FF458
:103F500080304FF4A020022401906005CDE9064096
:103F6000082508954FF4B470CDE909040720CDE980
:103F70000B046846FFF79AFA00BBFEF7C1FEE8B9EA
:103F80004FF4C070CDE91350E0010D90C0042290B1
:103F900015950DA8FEF7F0FE0F20CDE924044FF48F
:103FA000A050CDE92660E0022890052124A8FFF763
:103FB00039F9002802BF01202AB070BD00202AB0C4
:103FC00070BD0000403802400070004030B5264807
:103FD000ABB00024016841F080510160006800F03E
:103FE000805029902148016841F4404101600068F7
:103FF000022500F440402990032000900120039006
:104000000194102006950490CDE907404FF4B47058
:10401000CDE9090506200B906846FFF747FA00BB7B
:10402000FEF76EFEE8B90820C021CDE91301159016
:1040300040010D90C00422900DA8FEF79DFE0F20B8
:10404000CDE924054FF4A050CDE92640E8022890A0
:10405000052124A8FFF7E6F8002802BF01202BB0B5
:1040600030BD00202BB030BD403802400070004011
:1040700038B500242B4908284ED2DFE800F0040DA3
:10408000172029323B44284C086840F001000860A2
:10409000086800F0010007E0244C086840F00200C6
:1040A0000860086800F00200009038E0204C0868C2
:1040B00040F004000860086800F00400F4E71D4CBC
:1040C000086840F008000860086800F00800EBE7A6
:1040D000194C086840F010000860086800F01000F3
:1040E000E2E7164C086840F020000860086800F01D
:1040F0002000D9E7124C086840F0400008600868CA
:1041000000F04000D0E70F4C086840F080000860E5
:10411000086800F08000C7E70BA001F067FF2046A9
:1041200038BD000030380240000002400004024068
:1041300000080240000C024000100240001402403F
:1041400000180240001C024050696E6D61702065CD
:1041500072726F723A2077726F6E6720706F72742E
:10416000206E756D6265722E00000000DFF86CC075
:1041700030B4DCF800001A4B10F00C01194806D0DE
:104180005C10042908BF046002D008290CD0036029
:10419000DCF80010144AC1F30311515C026822FAE2
:1041A00001F1016030BC704710490A68C2F38055C4
:1041B0000A68002D02F03F0214BFB4FBF2F2B3FB19
:1041C000F2F20B680968C3F388135A43C1F3014143
:1041D000491C4900B2FBF1F10160D9E708380240FF
:1041E0000024F400440200200C8800080438024037
:1041F0000E48016841F4700101600D48016841F00A
:10420000010101600B4A00211160026822F41022B2
:1042100022F080720260031D074A1A60026822F4CD
:1042200080220260054801607047000088ED00E0D0
:104230000038024008380240103000240C38024098
:10424000F0B40268294B2A4C2A4D2B4EDFF8ACC043
:10425000984218BFB0F1804F07D0A04218BFA842C3
:1042600003D0B04218BF604503D14F6822F07002FE
:104270003A43984218BFB0F1804F25D0A04218BFF2
:10428000A84221D0B04218BF60451DD0A0F18044A3
:10429000B4F5A0341CBFA0F18044B4F5A23413D00F
:1042A000A0F18044B4F5A4341CBFA0F18044B4F55F
:1042B000C05409D0A0F18044B4F5E0541CBFA0F173
:1042C0008044B4F5005403D1CC6822F440722243F8
:1042D00002608A68C2620A688262984212BF6045C0
:1042E0000969016301214161F0BC70470000014090
:1042F0000004004000080040000C004000040140A1
:1043000010B5806B0021C185C184FFF75BFC10BD37
:104310002DE9F041044600680169E26821F440514A
:10432000114301612068C1682369A268D4F81CC0E8
:104330001A43636921F4037143EA0C0321F4144125
:104340001A431143C16020684169A26921F4407198
:1043500011434161E2693226B2F5004FBA48BB49C8
:10436000BB4D22685DD08A4218BF824240F0128164
:10437000FFF734F800EBC00101EB00106168890021
:10438000B0FBF1F7FFF72AF800EBC00101EB0010DA
:1043900061688900B0FBF1F0A5FB001040096FF0E7
:1043A0001801484307EB800006EB0010A5FB001046
:1043B000400900F0F007FFF711F800EBC00101EB36
:1043C000001061688900B0FBF1F0A5FB0010400906
:1043D00007EB0017FFF702F800EBC00101EB00103C
:1043E00061688900B0FBF1F8FEF7F8FF00EBC0014F
:1043F00001EB001061688900B0FBF1F0A5FB001033
:1044000040096FF01801484308EB800006EB0010EC
:10441000A5FB00102168C0F3431038448860BDE854
:10442000F0818A4218BF824259D1FEF7D7FF00EBD4
:10443000C00101EB001061684900B0FBF1F0A5FB81
:10444000001040090701FEF7C9FF00EBC00101EBB6
:10445000001061684900B0FBF1F8FEF7BFFF00EB08
:10446000C00101EB001061684900B0FBF1F0A5FB51
:10447000001040096FF01801484308EB800006EB7C
:10448000C000A5FB0010400900F0F80007EB400752
:10449000FEF7A4FF00EBC00101EB001061684900CA
:1044A000B0FBF1F8FEF79AFF00EBC00101EB001042
:1044B00061684900B0FBF1F0A5FB001040096FF006
:1044C0001801484308EB800006EBC000A5FB001074
:1044D0002168C0F3421038448860BDE8F081FEF7DF
:1044E0006DFF00EBC00101EB001061684900B0FBFB
:1044F000F1F0A5FB001040090701FEF75FFF00EB9C
:10450000C00101EB001061684900B0FBF1F8FEF753
:1045100055FF00EBC00101EB001061684900B0FBE2
:10452000F1F0A5FB001040096FF01801484308EBBB
:10453000800006EBC000A5FB0010400900F0F80069
:1045400007EB4007FEF73AFF00EBC00101EB00105C
:1045500061684900B0FBF1F8FEF730FF00EBC001E5
:1045600001EB001061684900B0FBF1F0A5FB001001
:1045700040096FF01801484308EB800006EBC000CB
:10458000A5FB00102168C0F3421038448860BDE8E4
:10459000F08100BFFEF712FF00EBC00101EB00103D
:1045A00061688900B0FBF1F7FEF708FF00EBC0017E
:1045B00001EB001061688900B0FBF1F0A5FB001071
:1045C00040096FF01801484307EB800006EB00102C
:1045D000A5FB0010400900F0F007FEF7EFFE00EB2E
:1045E000C00101EB001061688900B0FBF1F0A5FB90
:1045F0000010400907EB0017FEF7E0FE00EBC001DA
:1046000001EB001061688900B0FBF1F8FEF7D6FEFF
:1046100000EBC00101EB001061688900B0FBF1F014
:10462000A5FB001040096FF01801484308EB80001B
:1046300006EB0010A5FB00102168C0F343103844BE
:104640008860BDE8F08100000014014000100140C6
:104650001F85EB5101490120087070474802002076
:1046600010B50F4C03E0207808B100F023F80D4896
:1046700001F009F90028F6D10B4801F004F90028EF
:10468000F1D10A4801F0FFF80028ECD1084801F008
:10469000FAF80028E7D1BDE8104000F03FB900006B
:1046A00048020020800A0020A80B002058090020A2
:1046B0003008002010B5094801F0E5F838B908487D
:1046C00001F0E1F818B9074801F0DDF808B100F091
:1046D00025F905490020087010BD0000800A00205F
:1046E000A80B0020580900204802002010B55228CD
:1046F00020D04C2820D0442822D0552827D0582814
:104700002ED043282ED000214E2832D0412832D03E
:10471000502835D0532832D11A4801F00FF81A48E2
:1047200001F00CF8194801F009F8BDE810401848EC
:1047300001F004B8012200E000223221114814E007
:1047400001222821104800F0A7FF012205E00022E5
:1047500028210D4800F0A0FF002228210B4804E08A
:10476000002200E001220A481E21BDE8104000F0AE
:1047700093BF044802E0044801600448016010BD92
:104780000348FBE7800A0020580900203008002079
:10479000A80B002070B5264C2068002804BF201DFF
:1047A0002060251DA84204D05D222249224802F043
:1047B000B7F9224822680324C168002918BF0424DD
:1047C00022D000BF50F8241031B100EB84014968B9
:1047D000C1B1A41C102CF5DB102C15DBFBF7AEFDD2
:1047E0001821016012480168002904BF011D016001
:1047F000A94204D05D220F490F4802F091F94FF011
:10480000FF3070BD641CE7E74FF0FF3140F8241023
:104810000748002A04BF011D01600068A84204D0B7
:104820005D220449044802F07BF9204670BD000077
:10483000E8010020788B0008648B0008F00100205C
:104840001028A4BF002070472DE9F0411F4E0446F8
:1048500056F82400B0F1FF3F18BFBDE8F081032CEB
:10486000A8BFBDE8F081204600F0ECFB48BB204625
:1048700000F0EDFB28BB1648007810F0010F1FD1A7
:10488000134801F085F8D8B1124D13480221286071
:10489000124803224FF416570068002818BF284614
:1048A00007D10F4802F048FF39460D4802F00EFFCD
:1048B00028460C4A0C4901F057F8054801F096F8D3
:1048C000044846F82400BDE8F0810000F001002013
:1048D000D8010020DC0100207C8900083002002083
:1048E000EC05002000000008F549000870B50546F9
:1048F0000024094E08E0304600F0F8FBC1B229550B
:104900000A2908D0641CE4B20348BC3800F0BFFB9D
:104910000028F9D0EFE770BDA80D002010B50D48B4
:1049200000F048FF02460E480BA1044600F036FC9A
:104930000C4800F03FFF02460BA1204600F02EFC81
:104940000B4800F037FF02462046BDE8104009A1A1
:1049500000F024BC800A00207825690A00000000CD
:10496000A80D0020580900207925690A00000000E0
:10497000A80B00207A25690A0000000010B5012864
:1049800009D040F27E41054800F063FBBDE81040CD
:104990000A2003F01DBC40F29E71F4E7400E002097
:1049A00010B50C46002A04BF002010BD024802F0DA
:1049B000B1FE2070012010BDEC0500206FF01C003E
:1049C00070476FF0040070470020704770B5150005
:1049D0000E464FF0000406D0315D044803F06EF936
:1049E000641CA542F8D8284670BD0000EC050020E4
:1049F00001207047704770B50C4605461C21FBF737
:104A000029FF2146284601F0CBFB284670BD0268ED
:104A100011B181680A6070471104C2681160704763
:104A2000416809680068014201D0012070470020F8
:104A3000704770B5044600680122002103692046D2
:104A40009847050048BF70BD206802220021036915
:104A500020469847064620680022294603692046DA
:104A60009847304670BD002070474C3002F052BE6F
:104A700010B50C464C3003F021F9204610BD00EB78
:104A80000110D0F8A410002908BF704709689830B9
:104A9000084770B504464C3002F0CAFF054600F4E2
:104AA0007C51A06C0026002818BF002905D004F115
:104AB0003C020368012610469847A26B05F0FC01F2
:104AC000002A18BF002904D0126804F12C00904776
:104AD00002E0002E08BF70BDBDE8704003F052B97F
:104AE00070B5044600680D4601682046884729468F
:104AF00004F14C0002F0EAFDC4F8B85020684168A7
:104B00002046BDE8704008477047704770B50446BE
:104B1000006801682046884704F14C0003F0E2F881
:104B200005462068416820468847284670BD000039
:104B30002DE9F047904604463E4A84B03C481E4664
:104B400089462060D2E902130022A160E3603A495D
:104B5000216148F207016161E261A46104F1080189
:104B6000216236496162BFF36F8FBFF34F8F924668
:104B700084F828A084F829A0C4F82CA0C4F830A098
:104B8000C4F834A0C4F838A0C4F83CA0C4F840A0CD
:104B9000C4F844A04C2104F14C00C4F848A0FBF731
:104BA00059FE02231022264904F1980000F0DEFE8F
:104BB000A0F198050027066205EB071000F19804A4
:104BC0006E46CDF800A0CDF804A0CDF808A0CDF831
:104BD0000CA0B4420DD0E168204600291CBF8968B2
:104BE00088473146039810B14268204690470398A1
:104BF000E0600399684600291CBF896888477F1CCC
:104C0000022FD9D34246494605F14C0002F094FDEB
:104C100005F14C00D5F8B81002F058FD2A460949B4
:104C200005F14C0002F0F8FE04B02846BDE8F0871C
:104C3000148A00084488000801A090E8198300083D
:104C4000452B00087F4A00082DE9F043054689B04E
:104C500045480027B9462860CDF81090CDF814904B
:104C6000CDF81890CDF81C90286804AE07F0FF0826
:104C700001682846884701F06DF9079805EB08148C
:104C80000028D4F8A4001BD0002808BF03F04AF87D
:104C90009834B4420DD0E168204600291CBF8968D1
:104CA0008847079818B142683146204690470798D0
:104CB000E0600122414605F14C0002F067FF29E067
:104CC000002818BF03F05EF86E469834CDF80090C7
:104CD000CDF80490CDF80890CDF80C90B4420DD0EA
:104CE000E168204600291CBF89688847314603983F
:104CF00010B14268204690470398E06003996846E7
:104D000000291CBF896888470022414605F14C00F4
:104D100002F03CFF01F04EF92868416828468847B8
:104D2000079804AA10B18168104688477F1C022F9B
:104D300092DB022310220D4905F19800FBF704FED7
:104D4000A86C05F13C0410B181682046884754F8EE
:104D5000040C103C10B181682046884709B0A4F1CA
:104D60002C00BDE8F0830000148A0008E3820008EC
:104D700008B500F108010090D0F818C0604603F0B3
:104D80002BF808BD016889680847826900F10801AD
:104D9000104603F09DB8000010B504460748206097
:104DA0000020A060E0602061606101F087F90449A3
:104DB000A06103F0A9F8204610BD00002C8A00086D
:104DC000854D000810B504460448206004F1080130
:104DD000A06903F07DF8204610BD00002C8A000871
:104DE00010B5044601F0B6F804F1200001F00CFA09
:104DF000BDE8104001F0DEB8002908BF7047012966
:104E000009D0022918BF7047C16C002908BF70473C
:104E1000096840300847C16B002908BF704709681E
:104E20003030084770B584B00D46064601F092F860
:104E3000E86806F14004B8B1AC420ED0E168204603
:104E400000291CBF896888473CB1E86818B14268EE
:104E5000294620469047E868E0600122022106F1D9
:104E6000200001F07BFB22E000206D4600900190C5
:104E700002900390AC420ED0E168204600291CBF8E
:104E8000896888473CB12946039810B1426820469A
:104E900090470398E0600399684600291CBF896821
:104EA00088470022022106F1200001F057FB04B0E0
:104EB000BDE8704001F07EB870B584B00D4606467E
:104EC00001F048F8E86806F13004B8B1AC420ED001
:104ED000E168204600291CBF896888473CB1E86822
:104EE00018B14268294620469047E868E0600122F0
:104EF000114606F1200001F031FB22E000206D4652
:104F00000090019002900390AC420ED0E1682046E0
:104F100000291CBF896888473CB12946039810B115
:104F20004268204690470398E0600399684600294C
:104F30001CBF896888470022012106F1200001F08A
:104F40000DFB04B0BDE8704001F034B870B5044604
:104F50001148206000206060A060E0602061606116
:104F6000A061E06120626062A062E0622063606331
:104F7000A063E06320646064A064E0640D4623469F
:104F8000064A04F1200001F0F9F92946201D01F03C
:104F9000F3F8204670BD0000408A0008F94D000873
:104FA00010B504460A48206004F1200001F084F99D
:104FB000E06C403410B181682046884754F8040CF6
:104FC000103C10B1816820468847A4F1300010BD24
:104FD000408A000870B5174C05462068002804BFB9
:104FE000201D2060261DB04204D05D2212491348C6
:104FF00001F096FD00212468114B1022084600BFE5
:1050000053F821C0AC4508BF43F82100491C521E8B
:10501000F6D10848002C04BF011D01600068B042B1
:1050200008BF70BD5D22BDE870400349034801F030
:1050300077BD0000E8010020788B0008648B000831
:10504000F0010020002070470021FBF729BB002061
:10505000704770B50C46054600F07CFF2146284697
:1050600002F04CFABDE8704000F0A4BF10B5044651
:1050700000F070FF207E012803D102F083FE0020A3
:10508000207600F097FF204610BD7047704710B59E
:10509000FFF73CFD002800D0012010BD10B51C46D4
:1050A000029BFFF745FD2146BC3000F091F8054911
:1050B00040F8BC1D7C31C0F8C0105C39C0F8BC1091
:1050C00010BD0000508A000810B5074940F8C01B09
:1050D0007C3140F804195C39016000F0B1F8BDE89A
:1050E0001040BC38FFF7B0BD508A000870B50446C8
:1050F0000068C16C204688476069FBF744FA606924
:1051000000F0BCFA05462068016D20468847284615
:1051100070BD70472DE9F041054600680F460C460A
:105120008E18C16C28468847B4420AD02868826C21
:1051300028469047B0F1FF3F03D004F8010BB4427A
:10514000F4D12868016D28468847E01BBDE8F0814E
:105150000020704700207047002070472DE9F04183
:10516000054600680F460C468E18C16C28468847D5
:10517000B4420AD0286814F8011B426C28469047B4
:10518000B0F1FF3F18BFB442F4D12868016D284642
:105190008847E01BBDE8F081002070470FB470B570
:1051A00004460068C16C2046884706AD6069FBF77D
:1051B000EAF92A4660690599FBF7C4F905462068B3
:1051C000016D20468847284670BC5DF814FB704787
:1051D00010B5104A40F8042B002200F0A5F9041F76
:1051E0000D4820605C306060002060610BA12046AB
:1051F00000F012F901000846616102D0FFF724FFB8
:1052000005E0FBF79BF8016805A000F0EFFE2046E3
:1052100010BD0000C8890008DC8A0008772B000058
:1052200053747265616D206F626A206661696C7586
:1052300072652C206572726E6F3D25640D0A000048
:1052400010B50446054820605C3060606069FBF77B
:1052500031FA201D00F088F9001F10BDDC8A00081B
:1052600070B515461E46044600F074FE2046FFF752
:105270008CFDC4E90856A06902F01BFED4E908239E
:1052800082184B412046FFF773FDBDE8704000F0E7
:1052900091BE30B585B0044600F05CFE2046FFF7B5
:1052A00074FD606B00281EBF94F83800002802F0DF
:1052B00069FD6D4600202834009001900290039013
:1052C000AC420ED0E168204600291CBF896888479F
:1052D0003CB12946039810B1426820469047039894
:1052E000E0600399684600291CBF8968884700F080
:1052F00061FE05B030BD10B50446D4E90801D4E91B
:10530000022312184B412046FFF732FD616B002942
:1053100008BF10BD04F128000968BDE81040084727
:105320002DE9F041174698460D46064600F012FE5C
:10533000706B20B996F8380008B102F0F3FC06F162
:105340002804AC420AD0204602F0CBFFE86818B12E
:105350004268294620469047E868E0603A4643465E
:105360003046FFF77DFFBDE8F04100F023BE0000AE
:1053700010B5FFF711FD00228262C2620263034989
:1053800042630160012180F8381010BD488B00088D
:1053900070B5054684B01F48286000F0DBFD284644
:1053A000FFF7F3FC686B00281EBF95F83800002853
:1053B00002F0E8FC05F1280400206E460090019000
:1053C00002900390B4420ED0E168204600291CBF31
:1053D000896888473CB13146039810B1426820463D
:1053E00090470398E0600399684600291CBF8968CC
:1053F000884700F0DFFD686B05F1280410B1816873
:105400002046884704B0A4F12800BDE87040FFF7AB
:10541000D9BC0000488B00082DE9F04383B00E464C
:105420000546FFF7B7F90027DFF88480002806DB80
:10543000204948F820500F5401F110010F54044640
:1054400002BF002003B0BDE8F08331464FF04000BA
:105450008DF80000CDF801406846FBF7FAF8060029
:105460004FF009091BD02046FFF7EAF948B101685F
:10547000C9698847041E09DAFAF760FF61420160D2
:1054800009E0FAF75BFFC0F8009004E003D0304673
:105490000021FBF705F903B03046BDE8F08358F86A
:1054A0002400A84208BF48F82470EAD1F3E70000BE
:1054B000F00100208D050020007B704770B5064686
:1054C0000D46154802F0C2FE14480468F4B1A06805
:1054D000C8B12A463146FBF740F9A0B9A068FBF7EE
:1054E0001DF9A8420FD10C480168002904BF011D15
:1054F0000160001D814204D05D220949094801F084
:105500000FFB204670BD6468002CE0D1024802F019
:105510009DFE002070BD0000600200205C020020A3
:10552000788B0008648B000870B504460B48002691
:10553000A160C4E900060D462273094802F086FE08
:10554000002D08BF666003D00648016861600460F2
:10555000034802F07BFE204670BD00005C8B000813
:10556000600200205C02002010B504461048206054
:10557000104802F06BFEA06878B10F490868A0429D
:1055800004BF6068086008D04168A14203D00846A3
:105590004968A142FBD161684160064802F056FEAD
:1055A000207B002804BF201FFFF714FD204610BDFC
:1055B0005C8B0008600200205C02002010B50446ED
:1055C000406818B1FFF778FF012801D0002010BD16
:1055D0006068002818BF001F10BD10B50446406861
:1055E00010B1FFF769FF08B1002010BD6068002806
:1055F00018BF001F10BD4068002818BF0120704769
:1056000010B54068002808BF10BDFFF755FF0028FF
:105610000CBF0120002010BD0068704770B5044623
:1056200000200D46206060600FA12846FBF768F857
:10563000461900252660216808782F2804D028B153
:10564000481C6D1C2060F6E7481C206025B9282204
:10565000064907A001F064FA29463046FFF72EFFFD
:105660006060204670BD00002F000000588D0008CB
:105670006C656E20213D20300000000000F0DABC97
:1056800010B5044600F05AF820460022BDE810404C
:10569000052100F001B800007FB50D460446114613
:1056A000001DFFF7B4F94FF0FF30E0630B49206DA8
:1056B00091FBF0F090FBF5F509482146D0E9042371
:1056C000684602F017FE2A46EB17694604F15800B7
:1056D000FFF726FE684602F004FE7FBD40420F0041
:1056E0002488000870B50446C06B04F12005A8B1F9
:1056F0002846FFF795F9D0B100212846FFF787F932
:10570000E06B002802DDE06B401EE063201DFFF728
:1057100087F900280DDD4FF0FF300BE0002128460F
:10572000FFF775F92046BDE8704000F007B8012189
:10573000E3E7012021680844206070BD70B50025B2
:10574000044605645830FFF7A4FD04F19800FFF704
:10575000A0FDE56370BD00007FB50446C06C216C00
:105760000844E064E06CA16C884204DB04F198001A
:10577000FFF78FFD7FBD0D49206D91FBF0F0E16CCF
:1057800090FBF1F20A48D5171646D0E904232146CA
:10579000684602F0AFFD32462B46694604F15800D8
:1057A000FFF7BEFD684602F09CFD7FBD40420F0042
:1057B000248800080168006D91FBF0F0704700003C
:1057C0007FB50E4604461D461146001DFFF71FF922
:1057D000206D00FB06F1E1631549236C00229BB1AB
:1057E000C4E91252D1E906232146684602F082FD3F
:1057F00042F210720023694604F19800FFF790FD11
:10580000684602F06EFD7FBD0A4A92FBF0F090FB05
:10581000F5F2D5171646D1E904232146684602F071
:1058200069FD32462B46694604F15800E6E7000060
:105830002488000840420F0030B4436C046D1944C2
:10584000036861438B42036805DAC91A91FBF4F1DE
:105850001346002207E08B4208DD0368591A91FBCA
:10586000F4F11346012230BCFFF7AABF30BC7047E9
:1058700010B50446FFF762FF0021216010BD0A4603
:105880001E21FFF709BFC06B002800D00120704720
:105890007FB51C461646001D089DFFF7ACF8314643
:1058A0001C30FFF7A8F83830FFF762FD4030FFF7F3
:1058B0005FFD21464030FFF749FBA0F1D8040020EE
:1058C00025652060E063114D21466846D5E9002337
:1058D00002F010FD04F1D80069460646FFF7A2FA6F
:1058E000684602F0FEFCD5E902232146684602F034
:1058F00001FD69463046FFF7DFFA684602F0F1FC29
:105900003046FFF76DFA04B0204670BD24880008C9
:1059100010B5D830FFF744FB4038FFF739FD403869
:10592000FFF736FD583810BD7047BC38FFF79DB8FB
:10593000BC38FFF79DB8704703B401984100009848
:1059400050EAC12018BF04204A0D18BF40F00100E2
:1059500040F2FF72B2EB515F08BF40F00200012835
:1059600008BF052002B07047012070472DE9F041C3
:105970001C4617460E00804607D0054602E0284622
:10598000B0473D442046641EF9D24046BDE8F08150
:1059900010B50446007800F00301012904BF00207F
:1059A00010BD10F0030F05D040F20F52044905A0BE
:1059B00001F0B6F8207840F002002070012010BD00
:1059C000F08B000830203D3D20282A677561726405
:1059D0005F6F626A6563742026204358415F4755B4
:1059E0004152445F4D41534B2900000010B504461D
:1059F000007800F00300022805D040F21752054954
:105A000005A001F08DF8207820F0030040F001009F
:105A1000207010BDF08B00084358415F475541523C
:105A2000445F494E49545F494E5F50524F4752457B
:105A30005353203D3D20282A67756172645F6F6271
:105A40006A6563742026204358415F47554152449C
:105A50005F4D41534B2900000020FBF765BE00005D
:105A600010B505210148FEF7C6FF10BD5C0E0020F1
:105A700038B53F4D2D241C212846FAF7EBFE214670
:105A8000284600F079FB4FF44874102313221521A7
:105A900005F120000094FFF7FBFE364A3649FFF778
:105AA00063FF01230A221D2105F5A4700094FFF76E
:105AB000EFFE304A3049FFF757FF04230B221E2127
:105AC00005F51C700094FFF7E3FE2A4A2A49FFF708
:105AD0004BFFB2200090252314221A2105F5667091
